:020000040800F2
:10000000302600206902000871020008BD3A00088D
:10001000ED3A00085D3200082D480008000000009D
:100020000000000000000000000000007B0200084B
:100030007D020008000000007F020008A93E0008C1
:1000400083020008B53B0008830200088302000811
:10005000830200088302000883020008830200086C
:10006000830200088302000883020008AD32000802
:10007000830200088302000801350008830200089B
:10008000830200088302000883020008830200083C
:10009000830200088302000883020008830200082C
:1000A0008302000883020008830200083D41000823
:1000B000E941000883020008830200088302000867
:1000C00083020008830200088302000883020008FC
:1000D00083020008830200088302000883020008EC
:1000E00083020008830200088302000800F002F87F
:1000F00000F09DF80AA090E8000C82448344AAF125
:100100000107DA4501D100F092F8AFF2090EBAE822
:100110000F0013F0010F18BFFB1A43F0010318473B
:100120006CA800008CA800000A444FF0000C10F8E6
:10013000013B13F0070408BF10F8014B1D1108BF65
:1001400010F8015B641E05D010F8016B641E01F805
:10015000016BF9D113F0080F1EBF10F8014BAD1C55
:100160000C1B09D16D1E58BF01F801CBFAD505E073
:1001700014F8016B01F8016B6D1EF9D59142D6D3CD
:10018000704700000023002400250026103A28BFF5
:1001900078C1FBD8520728BF30C148BF0B607047F9
:1001A0006E2900F04781702900F01282662909F05B
:1001B000A387652909F0A087672909F09D87612930
:1001C00009F09C87692900F0F980642900F0F68025
:1001D000752900F0F3806F2900F09E81782900F0E6
:1001E000EA810368DB0928BF41F08001632901F03F
:1001F0003E81732901F04381E32901F04E81002003
:1002000070471FB59DE8030001F088FC01F066FC13
:1002100004000020002108F091FF401C60600020D5
:10022000002108F075FFE0601FBD10B510BD01F0A2
:1002300091FF1146FFF7E5FF06F0DEFF02F0F4F94B
:1002400003B4FFF7F2FF03BC02F080FA00B500BF71
:1002500000BF00BF00BF00BD00B50248D0F800D00D
:100260004068004700F0FF1F0948804709480047E1
:10027000FEE7FEE7FEE7FEE7FEE7FEE7FEE7FEE756
:10028000FEE7FEE704480549054A064B70470000B3
:10029000C53F0008ED000008302000203026002077
:1002A000302200203022002070B5A0FB0140B4F1C4
:1002B000805170F1000024BF002070BD204600F086
:1002C00081FC05001CBF214600F057FC284670BD8C
:1002D0000FB41CB5074B06AA7B44694600900598ED
:1002E00001F0A3F80020694601F0B2F81CBC5DF8EB
:1002F00014FB00007511000070B5044685690068A4
:10030000C10601D5302600E02026C00707D070BD09
:10031000D4E9012130469047206A401C20626D1EBE
:10032000F6D570BD70B5044685690078C00707D161
:1003300070BDD4E9012120209047206A401C206232
:100340006D1EF6D570BD09684A0501D540B27047EB
:10035000C905FCD500B2704709684A0501D5C0B28D
:100360007047C905FCD580B2704770B50C4605468C
:10037000012A05D02878800600D5EA69002302E02A
:10038000012305E05B1C934202D2E05C0028F9D116
:10039000A869E618C01AA861286A18442862284685
:1003A000FFF7AAFF04E0D5E9012114F8010B9047FB
:1003B000B442F8D32846FFF7B5FF70BD2DE9F041F0
:1003C0000646002410687529314616A510D0FFF79F
:1003D000BAFF002802DA404213A507E031688A0715
:1003E00001D512A502E0490704D511A5012401E0B9
:1003F000FFF7B2FF00210A2206F1240709E0B0FB53
:10040000F2FCB0FBF2F302FB1C00303078541846CB
:10041000491C0028F3D123462A463046BDE8F04166
:1004200000F017BC000000002D0000002B000000B1
:100430002000000011680268006A530501D50870A9
:100440000AE0D30501D5088006E0130603D5C217DC
:10045000C1E9000200E00860012070472DE9FF5F5C
:1004600015468A460446DFF8AC80F8440027D8E9F0
:1004700000103E46CDE9001010E03AF816106A462A
:1004800002A801F0D7FA411C07D02178890603D5CC
:10049000E269391891420DD80744761C207880060D
:1004A00002D5E069B84205DDAE42E6DB3AF8160057
:1004B0000028E2D1A069C01BA0612046FFF71CFF05
:1004C000D8E90010CDE90010002017E03AF8181024
:1004D0006A4602A801F0AEFAB0F1FF3F81460BD0A8
:1004E00000250DF1080B05E0D4E901211BF80500FA
:1004F00090476D1C4D45F7D308F10100B04280468E
:10050000E4DB206A384420622046FFF70BFFBDE899
:10051000FF9F0000EA9E000070B504462146106867
:10052000FFF71AFF002104F1240505E000F007029F
:100530003032C0086A54491C0028F7D120680023D3
:1005400007A2050707D5800600D421B1E069012381
:1005500004A2401EE0612046BDE8704000F079BB77
:100560000000000030000000F0B40D4601880905CD
:1005700002D51B4C7C4402E0194C7C440E34002113
:1005800000F1240305E002F00F061209A65D5E5497
:10059000491C002AF7D102780023120704D5702DD8
:1005A00006D009B1022311342246F0BC00F051BB41
:1005B00001231034F8E770B504460D462146106853
:1005C000FFF7CAFE024629462046BDE87040CBE749
:1005D0000368126843F0200303600823C361C3E784
:1005E000E89D00002DE9F05F894604464FF0000ABF
:1005F000DFF874B1FB44C0F820A02046E1688847CA
:10060000002874D0252806D0D4E901219047206A1B
:10061000401C2062F1E700265F462046E1688847DB
:100620002028054607DB312D05D2781910F8200C5B
:1006300008B10643F1E7B00701D526F00406C4F877
:100640001CA00027C4F818A02A2D09D0284604F0C1
:10065000B9FA38B304EB8708303DC8F8185019E0F0
:1006600059F8041B204604EB87029161E168884732
:10067000012F054618D1E069002820DA26F020066F
:100680001DE0D8F8180000EB800005EB4000303882
:10069000C8F818002046E1688847054604F092FA39
:1006A0000028EED1012F0AD02E2D08D12046E16876
:1006B00088477F1C0546022F46F02006C4DBA06950
:1006C000002803DA404246F00106A061F00701D09D
:1006D00026F010066C2D0BD0682D09D04C2D39D08A
:1006E0006A2D35D0742D35D07A2D33D016E038E010
:1006F000E1682F4620468847B842054609D16C2F4D
:1007000026D04FF48060E1680643204688470546BE
:1007100004E06C2F1AD04FF4807006430DB3A5F19E
:100720004100192802D8203546F400664A46294679
:10073000204626604E46FFF733FD80B101280BD0DE
:10074000F61D26F0070000F1080956E74020E4E70F
:100750008020D8E70020D6E706F104094DE72846B7
:1007600052E7206ABDE8F09F909D00000FB400B5ED
:100770008DB010A9099000910B904FF0FF300A90B6
:1007800000200C90064878440690064878446A4653
:1007900007900F9909A801F01DF90DB05DF814FB41
:1007A0006B120000831200002DE9FF5F1D464FF021
:1007B000FF3B91464FF000085F46D5E90146A96925
:1007C00001987F1C8847296A824688470028F6D10D
:1007D000BAF1FF3F0CD0002E24F4C06419DD60068E
:1007E00014D5BAF12B0F09D0BAF12D0F0ED103E0B9
:1007F000584604B0BDE8F09F44F48064A9690198AC
:100800007F1C8847761E8246002E02DDBAF1300F2B
:1008100003D0B9F1000F26D032E0A969761E019805
:100820007F1C44F400748847002E824605DDBAF12F
:10083000780F06D0BAF1580F03D0B9F1000F10D0DD
:100840001EE0B9F1000F02D0B9F1100F18D1A9695B
:10085000761E01987F1C24F400748847824610207D
:1008600002E0082000E00A20814609E0A96908FBAF
:100870000908761E01987F1C44F40074884782465C
:10088000002E05DD4946504600F013FE0028EDDA43
:10089000E96901988847A00502D46FF00100A8E734
:1008A000E00725D1600613D5600502D5C8F1000028
:1008B00000E0404629680A1D2A600968220501D522
:1008C000087015E0220701D5088011E008600FE0EC
:1008D0002868011D29600068210502D580F8008084
:1008E00006E0210702D5A0F8008001E0C0F80080F2
:1008F00038467EE72DE9FF5F4FF000089946144621
:1009000046469169D2E901A7DDF838B001988847D9
:10091000054659EA0B0005D009E0A1690198761C4B
:1009200088470546216A284688470028F5D1681C73
:1009300003D05FEACA7005D015E04FF0FF3004B075
:10094000BDE8F09F2068011D2160D0F800800AE01A
:100950005FEACA7001D108F8015BA169761C0198B1
:100960007F1E88470546002F1ADD681C18D0B9F194
:10097000000F0DD0E81705EBD060421120F01F00EA
:1009800059F822102A1A012090400142E0D107E0D4
:10099000BBF1000FDCD12846216A88470028D7D058
:1009A000E16901988847BBF1000F07D1002E05DDF2
:1009B0005FEACA7002D1002188F80010A068B8422E
:1009C00003DDBBF1000F03D017B16FF00100B6E7F4
:1009D0003046B4E72DE9F047984614460F46824664
:1009E000DDF8209094B1012C0BD04A4650466508A2
:1009F00005FB08763146904700280CD00DDA2C46CE
:100A0000F0E74A4639465046904710B10020BDE80D
:100A1000F0873846FBE73046F9E7641B641E06EBB7
:100A20000807DFE740EA010310B59B070FD1042A4E
:100A30000DD310C808C9121F9C42F8D020BA19BAA9
:100A4000884201D9012010BD4FF0FF3010BD1AB10E
:100A5000D30703D0521C07E0002010BD10F8013B63
:100A600011F8014B1B1B07D110F8013B11F8014B8A
:100A70001B1B01D1921EF1D1184610BD2DE9F0418A
:100A8000054690460E460020044600E0641C44459E
:100A90000BD2285D00F0D0F80746305D00F0CCF8AE
:100AA000381A02D1295D0029F0D1BDE8F0812DE985
:100AB000F0410E460546002400E0641C285D00F06D
:100AC000BBF80746305D00F0B7F8381A02D1295D4F
:100AD0000029F2D1BDE8F08110B5431C02E010F806
:100AE000011B71B18107FAD14FF0013202C88C1A93
:100AF0008C4314EAC211F9D0C01A0A0603D0C01EF2
:100B000010BDC01A10BD0A0401D0801E10BD09021C
:100B1000FCD0401E10BD10B5203AC0F00B80B1E8EB
:100B20001850203AA0E81850B1E81850A0E8185022
:100B3000BFF4F5AF5FEA027C24BFB1E81850A0E82B
:100B4000185044BF18C918C0BDE810405FEA827C45
:100B500024BF51F8043B40F8043B08BF7047D2075C
:100B600028BF31F8023B48BF11F8012B28BF20F8FD
:100B7000023B48BF00F8012B70474FF000020429E8
:100B8000C0F0128010F0030C00F07687CCF1040C5A
:100B9000BCF1020F18BF00F8012BA8BF20F8022BF0
:100BA000A1EB0C0100F068BF5FEAC17C24BF00F834
:100BB000012B00F8012B48BF00F8012B704770474C
:100BC0007047704770B5064600F084FF056806F16F
:100BD0000B0020F00704B4429CBF002070BD2B46E0
:100BE0006A68BAB11068A04210D304F108018842C3
:100BF0003CBF5068586007D35168101941601168B4
:100C0000091B016058601460101D70BD13465268C6
:100C1000002AE7D12146284600F06CFF0028DED1EB
:100C200070BD10B500F05EFF006810BD10B5044641
:100C300000F058FF046010BD10B5044600F042FFFC
:100C40000068005DC00602D504F1200010BD2046FA
:100C500010BD2DE9F0470D4699469246044600F135
:100C600024080168880604D5E06921F0100121609C
:100C700000E00120A84201DD471B00E00027A16938
:100C80007A1902EB0900081AA0612078C00602D484
:100C90002046FFF731FB002608E0D4E901211AF8CD
:100CA00006009047206A401C761C20624E45F4DB0B
:100CB0002078C0060AD52046FFF71EFB06E0D4E9DF
:100CC000012130209047206A401C2062381EA7F185
:100CD0000107F4DC07E0D4E9012118F8050090478A
:100CE000206A401C2062281EA5F10105F3DC204685
:100CF000FFF718FB2078000602D50220BDE8F08738
:100D00000120FBE770472DE9FF4F0C461E464FF0D0
:100D1000FF378BB0D2E90001DDF860800A908A4687
:100D2000C1F30A5505B93D46002108464FF00000C1
:100D3000BAF1000F00F4400005DA00EB80004FF438
:100D4000400101EA50004FEA9059B9F1010F00DD6E
:100D5000B9460A9850EA4A000ED044F61050A5F25F
:100D6000FF3545432F14B8F1000F1ED07542291EE0
:100D70001EDDC9F100021CE0B8F1010F4FF00000C8
:100D800001D0302103E0F24305E02154401CB04281
:100D9000FBDB30460022002121540B99C1F808806A
:100DA000C1E900200FB0BDE8F08FBD1B6D1CDEE770
:100DB0004A4600DA694206A801F056F906AB93E804
:100DC000070003AB83E8070050460A9901F0E4FCF2
:100DD0008DE80700A0F500501F3800900398002D03
:100DE0000ADD42F21F014A460844002303A903908A
:100DF000684601F08FFF09E0A0F500504A461F3811
:100E0000002303A90390684601F0AEFF8DE80700B8
:100E10000004000C03D04FF0FF30410800E0104602
:100E2000B8F1000F03D00022009215461EE0751E97
:100E300005D400F0D0FE303262556D1EF9D5B346B0
:100E40000122084302D000227F1C04E020783028D1
:100E500001D100227F1E002A099784D01DE0112DA8
:100E600007DA00F0B8FE303262556D1C50EA01021C
:100E7000F5D1084302D00098C8B10EE00021681EE9
:100E800005E0235C625C63542254401E491C81428D
:100E9000F7DBAB46A81B401E0990002004F80B00AE
:100EA0000B98099AC0F80880C0E9002B7AE7112650
:100EB0004FF0000857E72DE9F04F88460446D21D51
:100EC00022F0070191B0D1E90001CDE90A0103F058
:100ED000C5FC02460B98C00F01D02D2007E020680A
:100EE000810701D52B2002E0202101EAC000032A5E
:100EF000099001D0072A05DB03464146204600F051
:100F0000B9FE0BE12078800601D5E06900E00620FB
:100F1000B8F1650F814606D0B8F1660F18D0B8F168
:100F2000670F70D131E00020B9F1110F009001DBA3
:100F3000112301E009F101030AAA01A90CA8FFF796
:100F4000E2FEDDE90C70002609F10105834647E069
:100F500001204B4600904FF000470AAA01A90CA8B7
:100F6000FFF7D1FEDDE90DB00C995D46002610B902
:100F700009F101000D18B9EB050003D4C0F1FF36EB
:100F800009F10105A5EB09002BE0B9F1010F01DA28
:100F90004FF001090020B9F1110F0090484601DD22
:100FA000112300E003460AAA01A90CA8FFF7ABFE33
:100FB000DDE90C704D4600268346207800070AD4F0
:100FC000AB4500DA5D4601A8012D04DD411911F899
:100FD000011C302907D04F4502DA17F1040F04DA5B
:100FE000012082460FE06D1EEEE7002F02DCED1BB4
:100FF0003E4403E0781CA84200DD7D1CB81B00F1D4
:10100000010A4FF000472078000703D4AA4501DB0E
:101010004FF0FF3A0021B7F1004F0DF143088DF872
:10102000431024D002202B23002F01DA7F422D23EE
:101030000A21021EA0F1010000DC5FB197FBF1FC68
:1010400097FBF1F201FB1C7C17460CF1300C08F801
:1010500001CDEEE7A8F1010003702188090501D553
:10106000452100E06521A0F1010800F8011C099864
:101070000FA9A1EB0807FF1D00B10120411901EBE9
:10108000EA70A1693844081A401EA0612078C006A1
:1010900002D42046FFF730F9099828B1D4E901219C
:1010A0009047206A401C20622078C00622D5204646
:1010B000FFF722F91EE0002E04DBB34502DD01A894
:1010C000805D00E03020D4E901219047206A401C77
:1010D0002062761CAAF101005FEA000A0AD100F042
:1010E000FDFCC0680168405CD4E901219047206A9A
:1010F000401C2062281EA5F10105DCDC07E0D4E9D4
:10110000012118F8010B9047206A401C2062381E0C
:10111000A7F10107F3DC2046FFF704F9032011B023
:1011200041E600002DE9F04F04460D46D21D22F0A5
:10113000070089B0D0E900974846394603F08EFB96
:101140000246F80F01D02D2307E02068810701D562
:101150002B2302E0202101EAC0038DF820300BB1DF
:10116000012000E00020032A824601D0072A04DB88
:101170002946204600F07EFD3FE12078800601D41C
:101180000D2500E0E569C7F30A560D2D49DA002167
:101190004FEA175B08464FF00000002F00F44000B4
:1011A00007DA00EB80004FF4400100EBD07001EA59
:1011B00060008115012901DD4FF0FF3100224FEA67
:1011C000850CBCF1180F06D31346ACF118004FF094
:1011D0008052C24003E04FF4801323FA0CF30CF169
:1011E0000C0CBCF1200F04D3ACF1200C09FA0CF06C
:1011F00001E007FA0CF000294FF0004801DD18B9B2
:101200000FE00ED140450CD319EB02095F4121B923
:10121000404502D19F4329EA0209BBEB175F00D08A
:10122000761C2088000502D57B48784402E07A4885
:101230007844193808AA302302F80A30037C0AF1EE
:101240000101002E0AF1020A53546A4602DC4FF0F3
:10125000300101E04FF031014FF001088DF800102E
:1012600002D0A6F2FF3603E059EA470100D06B4EE8
:10127000002D02DC2178090704D54FF002082E2149
:101280008DF80110C44600210BE0C7F303433F0172
:10129000C35C491C6D1E02F80830052908F10108DD
:1012A00001DA002DF1DC00210CE000EB1973491C80
:1012B0001B786D1E082902F808304FEA091908F159
:1012C000010801DA002DF0DC21688B0602D516E05A
:1012D000A8F10108E04505DD02EB080313F8013C25
:1012E000302BF5D0B8F1000F09DD02EB080313F83D
:1012F000013C2E2B03D1090701D4A8F10108002DD0
:1013000005DD3E2102F808106D1E08F10108407C41
:10131000002E02F8080008F1010804DA2D207642B8
:1013200002F8080002E02B2002F808000A214FF41E
:101330007A70864208F101080BDB96FBF0F330333C
:1013400002F8083096FBF0F308F1010800FB136681
:1013500001E0642E0CDB642096FBF0F3303302F8DE
:10136000083096FBF0F308F1010800FB136601E07A
:101370000A2E06DB96FBF1F0303002F8080008F187
:10138000010896FBF1F001FB1060303002F8080014
:10139000A16908F1010808EB050202EB0A00081A2E
:1013A000A0612078C00602D42046FEF7A5FF216A7E
:1013B00008AE01EB0A00206204E0D4E9012116F82E
:1013C000010B9047BAF1010AF7D22078C00602D586
:1013D0002046FEF791FF6E4609E016F8010B3E2805
:1013E0000FD0D4E901219047206A401C2062B8F157
:1013F0000108F2D22046FEF795FF09B00320BDE8B0
:10140000F08F206A2844206203E0D4E901213020D3
:1014100090476D1EEBD3F8E77E91000002FCFFFFC2
:1014200001694A1C02610878704700B58FB0CDE9A8
:1014300001310021059105497944CDE90310114698
:101440006846FFF7CFF80FB000BD0000E5FFFFFFD3
:101450000A6802F8010B0A60704710B5436913B1BE
:10146000AFF3008001E0FEF780FF012010BD12788D
:1014700000F124010A7000224A700122EDE7116890
:101480004FF0FF32E9E710B5436913B1AFF30080C5
:1014900001E0FEF7E3FF012010BD128800F12401F6
:1014A00082840022C2840122EDE711684FF0FF32EE
:1014B000E9E73A2800D2303820F02002412A01D34F
:1014C000A2F13700884201D34FF0FF30704700008F
:1014D0002DE9FF4F06468BB00878FF2806D0491C3F
:1014E0002D2805D000244FF0000908E000200CE072
:1014F0000124F8E709EB8903491C00EB430908784C
:10150000FF28F7D114B1C9F10000814610780025F9
:101510002C46AA4629462D2801D02B2804D1521C3E
:101520002D2813D0002082468B461078FF280FD03C
:101530004FF0000C0A21521CA5FB017804FB01812D
:1015400005FB0C11C5194BEB0104EEE70120EAE79E
:10155000002108464FF00000BAF1000F02D000EB66
:1015600080004008C0F38157012F01DD4FF0FF37A5
:101570000E9955EA040009EB01080BD04FF002095F
:1015800018F5FA7F16DA4FEACA70002F706008DD8E
:10159000012007E04FEACA70C6E900B00FB0BDE80D
:1015A000F08F0020306000F09DFAC0F80090182104
:1015B000084616E0B8F5FA7F18DD002F02DAF74882
:1015C000784401E0F6487844D0E90010C6E90010FC
:1015D00040EACA70706000F085FAC0F800901421EB
:1015E00008460FB0BDE8F04F08F083BD0021084663
:1015F0004FF00000B8F10001099002DAC7F10002D3
:1016000000E03A4601DAC8F1000106A800F02CFD1E
:1016100006AB93E8070003AB83E8070044F23E0003
:101620005BEA04010090584604D144F21E012C46A6
:101630005D460091210C0904014306D10099240460
:1016400044EA15442D041039009104F07F41014310
:1016500006D10099240244EA15642D02083900914C
:1016600004F07041014306D10099240144EA157445
:101670002D01091F009104F04041014306D100995A
:10168000A40044EA9574AD00891E009104F0004165
:10169000084304D100986D196441401E00904FF03A
:1016A00001033A466846B8F1000FCDE9014503A9A8
:1016B00002DD01F06EFB01E001F041FBBAF1000F29
:1016C00004460D4601D084F00044002108464FF046
:1016D0000000099940F2FF77484010F00C0F07D145
:1016E00024F00040284303D0C4F30A50B84212D17A
:1016F00000F0F8F9C0F80090C4F30A50B8420AD1DB
:10170000A8487844D0E90010C6E9001004F0004170
:101710000843706042E7C6E900543FE72DE9FF4FF8
:101720001F464FF0000A4FF0FF38454691B0D7E909
:101730000146CDF83CA000F0D1F9C0680168405CDA
:101740001090B96912986D1C8847396A814688479C
:101750000028F6D1B9F1FF3F0AD0002E24F4D0645E
:1017600011DDB9F12B0F08D0B9F12D0F0BD102E02B
:10177000404615B013E744F48064B96912986D1CB3
:101780008847761E8146600504A901D52D2000E01A
:101790002B20002E01F1010B0DF130088DF8100007
:1017A0003FDDB9F1690F08D0B9F1490F05D0B9F1A2
:1017B0006E0F02D0B9F14E0F1CD13B4601A8009527
:1017C00080E85002DDE912126FF0020008F022FDFD
:1017D000C11CCED10EE0B96912986D1C88478146B4
:1017E0001398761E44F4007405600F98401C002E78
:1017F0000F9016DDB9F1300FEDD0B9F1780F02D0AE
:10180000B9F1580F0DD10F9801280AD13B46CDE907
:101810000054DDE91212001F029608F0F9FCC11C09
:10182000A7D1109989453ED144F0800406E0139970
:10183000681CAAF1010A44F400740860B9696D1CBF
:101840001298761E884730288146F0D02BE01099F8
:10185000894505D1200603D4761E44F0800418E0A3
:10186000484603F0AFF908B3761E0DF123018B450E
:1018700044F4007408D2A9F130000BF8010B2006E3
:1018800007D5AAF1010003E0200602D40AF1010005
:101890008246A00502D51399681C0860B9691298A0
:1018A0006D1C88478146002ED1DC53E0002E51DDAF
:1018B000B9F1650F02D0B9F1450F4BD1A00549D55B
:1018C000B9696D1C1298761E24F440748847002E66
:1018D00081460CDD2B2804D0B9F12D0F07D144F43B
:1018E0008074B96912986D1C8847761E8146E005A0
:1018F00001D52D2100E02B2108F8011BCDF8008037
:1019000021E0761E0DF13901884544F400740CD2B3
:10191000A9F1300010F0FF0088F8000002D1009912
:10192000884509D908F1010806E0E00501D51E48FF
:1019300001E042F20F708246B96912986D1C884727
:10194000814613980560002E04DD484603F03AF9FD
:101950000028D6D1F96912988847FF2053468BF8A2
:10196000000088F8000000200A900B9004AA0CA93F
:101970000AA8FFF7ADFDA00502D46FF00100F8E65C
:1019800014F0240F12D0E0071CD13868DDE90A12E8
:10199000031D3B600068C0E9001213E0F0930000F3
:1019A000E2930000A6920000F1D8FFFF0AA9684662
:1019B00002F096FFE00705D13868009A011D3960F2
:1019C000006802602846D4E602681144137801607A
:1019D00018467047D16005497944516104497944FA
:1019E000116200211161114600F084B9EDFFFFFF83
:1019F0007F020000426842B1016811F8013B23B147
:101A0000521EC0E90012184670470121C160881EAD
:101A1000704742685AB1C368016843B983688B4212
:101A200005D0491E521CC0E90012002070474FF03B
:101A3000FF30704770B516460C46054600F042F878
:101A4000036893F80101012806D0FF2C0FD8185D18
:101A500068B101202C7070BDD3F8070132462146D1
:101A600003F2071303442846BDE8704018474FF0BF
:101A7000FF3070BD4FF0000200B513469446964605
:101A8000203922BFA0E80C50A0E80C50B1F1200191
:101A9000BFF4F7AF090728BFA0E80C5048BF0CC03F
:101AA0005DF804EB890028BF40F8042B08BF70479D
:101AB00048BF20F8022B11F0804F18BF00F8012B0F
:101AC0007047000010B500F009F8001D10BD00BF00
:101AD0006D76000000487047D41F00200048704712
:101AE000EC1F002000487047CC1F00207047704753
:101AF0007047704738B504460A4600206946AFF380
:101B00000080002808BF38BD02460099204600F03A
:101B100046FB012038BD012000F08FBDF8B5AFF3C2
:101B20000080054600200C46102000BF0646A8197C
:101B3000A0420DD9324669460020AFF3008007006D
:101B400008BF00F07AFD0098A04218BF0546C419EE
:101B5000FFF7C0FF05600746F01D20F0070046199B
:101B6000284600F00AF8B44208BFF8BDA21B31466F
:101B70003868BDE8F84000F012BB00210160C0E900
:101B8000011070471020704770B50446051FFFF71D
:101B9000A1FF0068002C14BF446870BD002C18BF62
:101BA000AC423CBF20466468F8D301680A18AA42D8
:101BB00018BF456003D12A680546114401602868B2
:101BC0004119A1421CBF6C6070BD616869602168E9
:101BD0000844286070BD30B5B0F10A024FEA900E9B
:101BE00071F100034EEA817EB0EB0E0061EB9101D2
:101BF0004FEA101E4EEA017E10EB0E0041EB111170
:101C00004FEA102E4EEA016E10EB0E0041EB11214F
:101C10004FEA104E4EEA014E10EB0E0041EB11411F
:101C2000401841F100014FEAD00040EA41704FEA0C
:101C3000D10110EB80054FEA810444EA907444EB33
:101C400001046D1944EB0404521BA3414FF000033F
:101C500048BF0A3200D530BD401C41F1000130BD03
:101C600010B50446FFF72EFF0068005D00F001008C
:101C700010BD00002DE9F0411F460446032601680F
:101C8000072A01F4006004DB08B116A505E016A5DB
:101C900003E008B115A500E015A521F010002060B3
:101CA000A069C01EA0610FB1401EA0612046FEF7D2
:101CB00023FB4FB1D4E9012138469047206A401CEC
:101CC0002062C01C206206E0206AFAE7D4E9012104
:101CD00015F8010B9047761EF8D22046FEF722FB3E
:101CE000BDE8F0814E414E006E616E00494E4600E7
:101CF000696E66002DE9F34F4FF0000A0C46564618
:101D00008DB001200C9001F10C000B9062690B98D2
:101D100001219047051E2DD0252D2CD0216A884702
:101D2000C0B162690B9801219047216A8847002859
:101D3000F7D16269411E0B98904700E0761CA169BB
:101D40000D988847216A88470028F7D1E1690D98E6
:101D50008847DBE7A1690D988847A842074601D16B
:101D6000761CD3E7E1690D9888477F1C02D1BAF150
:101D7000000F6FD06BE162690B9800273D46394632
:101D800090472A2804D162690B98012190470125C8
:101D9000DFF8D08262690B9801219047A0F13001F1
:101DA0000A290AD24745E5DC07EB870100EB41072A
:101DB000303FDFD445F01005ECE7E90601D46FF0C1
:101DC00000476C280AD04C2814D0682815D06A28FF
:101DD0000DD074281CD07A281AD01DE062690B98A7
:101DE000012190476C2802D045F0040514E045F02D
:101DF00002050DE045F020050AE062690B9801211B
:101E00009047682802D045F0080505E045F40065D4
:101E100062690B9801219047C4E9015765283DD0BC
:101E200019DC58287AD00CDC452837D004DC25286A
:101E300026D041289ED131E046282FD0472899D17D
:101E40002CE05B2877D0612828D063287CD06428D8
:101E500023D15AE0F6E06F2848D008DC66281DD070
:101E600067281BD0692821D06E2816D127E070285A
:101E700045D0732868D0752847D078280DD14DE01B
:101E8000A1690D988847252805463FF469AFE169A7
:101E90000D9888476D1C3FF46AAFD8E00D99234632
:101EA0006A466FF0010008F0B1F9C5E045F0400066
:101EB00023464FF000026060A80736D43EE0E807F2
:101EC0007FF447AF2068011D21600068290501D516
:101ED00006701BE7290701D5068017E7A90703D578
:101EE000F117C0E9006111E706600FE745F0400017
:101EF00023464FF008026060A80716D41EE040F6A3
:101F00000E0125EA0100606016E045F0400023461E
:101F10004FF00A026060A80707D40FE045F04000C8
:101F20006060A80708D5234610220D996FF00100C4
:101F3000AFF3008080E007E0102223460D996FF098
:101F40000100FEF731FC77E04FF0000963284F46AF
:101F5000C8464B46CB4602D05B2806D038E0E806A0
:101F600001D40120A060012732E06269D4F80CB0EE
:101F70000B98012190475E2807D14FF0010949468F
:101F80006269D4F80CB00B989047216939B90021E7
:101F90000A4603AB43F82120491C0829FADBD8B3D1
:101FA000216949B308F1010862690B980121904742
:101FB0005D28F4D1B9F1000F09D0002003A951F830
:101FC0002020D24341F82020401C0828F7DB03AB37
:101FD0002069002820794FEA40701ED05B462246D7
:101FE000CDF80080CDE901970D9900286FF0010030
:101FF00020DAAFF300801FE0C11703AA00EBD16124
:102000004B1121F01F0102EB8302411A13680120DA
:10201000884003431360C7E719E00D992246002862
:102020006FF00100009702DAAFF3008004E0FEF7E2
:1020300061FC01E0AFF3008000280ADA401C06D101
:102040000C9820B14FF0FF300FB0BDE8F08F504634
:10205000FAE7E90701D10AF1010A064400200C90D1
:1020600054E60000CCCCCC0C2DE9F0478146164656
:102070008AB0354878440DC88DE80D003248784460
:10208000801C03AC0DC884E80D0041F69B30084469
:10209000372190FBF1F290FBF1F5A5F1800501FBF2
:1020A00012041B3C02D56442012000E00020DFF84E
:1020B00098A080460027FA44AAF1BE0A0EE0E00785
:1020C0000AD03246684607EB470101230AEB81013B
:1020D00000F04AFE8DE8070064107F1C002CEED152
:1020E000194F7F44AE3F19E0E80715D007EB041005
:1020F0000DF1180A90E80E008AE80E00C068F04260
:1021000001D1981908903246012306A903A800F0CE
:102110002BFE03AB83E807006D10641C002DE3D198
:102120004FF0010332466946B8F1000F03A802D010
:1021300000F0F0FD01E000F017FEC9E90001C9F868
:1021400008200AB0BDE8F087E4830000004870472B
:10215000CC1F00207546FFF7F9FFAE460500694623
:10216000534620F00700854618B020B5FEF78AF8E0
:10217000BDE820404FF000064FF000074FF0000888
:102180004FF0000B21F00701AC46ACE8C009ACE809
:10219000C009ACE8C009ACE8C0098D4670470346E9
:1021A00040688C46002818BF88423CBF0346406800
:1021B000F8D318681844884207D00CF1030020F0C7
:1021C0000700001D411A521A0146081D0A60FFF758
:1021D000DBBC00002DE9FF4F1F464FF03C0987B0E4
:1021E0004FF00042DDE9141001F10108DDF858A0BC
:1021F00002EA4050039000200590834605460446BD
:102200000490B969461E08988847AAF1010A02900D
:10221000BAF1000F3BDD02982E2815D01021FFF7F0
:1022200048F900282EDB4FF0010B0599014317D028
:10223000B9F1000F0BDB4A46C11700F046FA05431F
:102240000C43A9F1040905E0012004900BE008B15A
:1022500045F0010501200590049820B9361D02E0E3
:10226000049800B1361FB969089808F10108884739
:10227000BBF1000FAAF1010A0290C9D00999C1F877
:102280000080C5E70298702808D0502806D0F96968
:1022900008988847BBF1000F14D04FE0002002904F
:1022A0000120BBF1000F049009D0B969089808F12A
:1022B00001088847AAF10109B9F1000F07DCF969A3
:1022C000089888476FF001000BB0BDE8F08F2B280D
:1022D00004D02D280CD14FF0FF300490B969089834
:1022E00008F101088847A9F10109B9F1000FE6DDFD
:1022F000411CE4D00A21FFF7DCF80028DFDB02995B
:1023000008F1010801EB810100EB41000290B9697D
:10231000089888470A21FFF7CCF8099AA9F1010922
:10232000B9F1000FC2F8008001DD0028E7DAF96991
:10233000089888470499029800FB016655EA040052
:1023400004D004F04041090002D006E0039898E070
:10235000A40044EA9574AD00B61E04F000410800E4
:1023600002D16D196441761E159810F0240F03D028
:102370004FF00B095C4803E04FF028096FF07D0037
:102380008246564507DAAAEB06018944B9F1410FA6
:1023900001DD4FF0410901200021A9F1010200F007
:1023A00094F9024628400B462140084301D0012100
:1023B00000E00021501E029143F1FF3128402140EE
:1023C000084301D0012000E000200299834651EA31
:1023D0000B014FD0002108464FF00000039900F494
:1023E000400039B100EB80004FF4400100EBD070A9
:1023F00001EA60008015012802DD4FF0FF3000E0A7
:1024000013D0401C36D0029860B3BBF1000F0CD142
:102410004A460120002100F058F928402140084395
:1024200001D0012000E00020E0B101204A46002157
:1024300000F04BF9034640190A4661412D1A8C41C0
:1024400011D3B9F1400F09DD159810F0240F02D017
:10245000AAF1340603E0AAF1170600E0761C002575
:102460004FF0004406E05B1E42F1FF3220EA030514
:1024700021EA0204CAF10100B04206DA1B490398BE
:1024800008430190002000900EE0039AC4F3D3218A
:10249000E80A0A43164940EA44500A433146CDE966
:1024A0000002684602F036FB159810F0240F0BD09E
:1024B0001598C00715D13868DDE90012031D3B608F
:1024C0000068C0E900120CE002A8694602F008FAB0
:1024D0001598C00705D13868029A011D3960006857
:1024E00002604046F0E6000002FCFFFF0000F07FC3
:1024F0000000F03F2DE9FF4F92461D4685B04FF09A
:102500000041DDE9124BDDE914727F1E01EA4B50F8
:10251000414940F0FF4940EA0108002122F0200033
:102520004928049102D04E2828D04CE03BA0012637
:1025300007C88DE80700A9690698641C88477F1EB4
:10254000014606D41DF8060018B121F02001814291
:102550000BD0E96906988847032E34D0082E32D074
:102560006FF0010009B0BDE8F08F761C032E01D09A
:10257000082EE0D1601CCAF80000DCE7A9690698C3
:10258000641C88477F1E2AD420F02000412826D1D1
:10259000A9690698641C88477F1E20D420F020007B
:1025A0004E281CD1A9690698641C88477F1E48F4F0
:1025B000002849F48009CAF8004001D4282806D030
:1025C000E969069888475FEACB7012D022E0A969D2
:1025D0000698641C88477F1E01D4002803DAE96945
:1025E00006988847BCE72928F1D1641CCAF8004046
:1025F000E9E71BF0240F07D028680499031D2B601E
:102600000068C0E9001805E02868021D2A6000681B
:10261000C0F800902046A5E70000F07F494E4649EB
:102620004E4954590000000010B50446AFF3008035
:102630002046BDE81040FDF703BE10B500F05EF87F
:10264000BDE8104000F054B84FF0013C50F8042BA6
:1026500051F8043B9A4221D1A2EB0C03934313EAB5
:10266000CC1317D150F8042B51F8043B9A4215D1E2
:10267000A2EB0C03934313EACC130BD150F8042BB9
:1026800051F8043B9A4209D1A2EB0C03934313EA9D
:10269000CC13DBD04FF00000704700BFD01A01BA56
:1026A000B1FA81F101F0180122FA01F0CB40C1F139
:1026B0002001DBB2C0B2C01A2CFA01F3D11A914347
:1026C00011EAC311E6D170477047B2F120030AD571
:1026D000C2F1200301FA02F120FA03F300FA02F03A
:1026E00041EA0301704700FA03F14FF00000704720
:1026F000002801D000F02AB87047000010B501286A
:1027000005D0002103A000F027F8012010BD09A189
:10271000F8E7000053494752544D454D3A204F7554
:1027200074206F662068656170206D656D6F7279C9
:10273000000000003A2048656170206D656D6F7281
:102740007920636F72727570746564000149182096
:10275000ABBEFEE72600020070B505460C460A2017
:1027600000E06D1C00F011F835B128780028F8D190
:1027700002E0641C00F009F814B120780028F8D1B8
:10278000BDE870400A20AFF3008008B569468DF8B7
:1027900000000320ABBE08BD5FEA400C08BF91F00B
:1027A000000F4FEA8C234FEAC12243EA51514FEA0E
:1027B0001C5018BF00F5F0404FEA300018BF41F040
:1027C00000415FEA6C5C00F02980BCF1FF3F08BF6C
:1027D00040F080407047130C06BF12044FF0100CFD
:1027E0004FF0000C130E04BF12020CF1080C130F73
:1027F00004BF12010CF1040C930F04BF92000CF102
:10280000020CD30F04BF52000CF1010C11464FF023
:102810000002A0F11F00A0EB0C00704711F0004F68
:1028200008BF704731F000413FF4D5AF0B0C06BF35
:1028300009044FF0100C4FF0000C0B0E04BF0902FE
:102840000CF1080C0B0F04BF09010CF1040C8B0FE9
:1028500004BF89000CF1020CCB0F04BF49000CF13E
:10286000010CCCF12003A0EB0C0022FA03F302FAD6
:102870000CF241EA030100F10100704720F07F4CA7
:1028800080EA030023F07F47ACEB070303F57C539A
:1028900000F0004003F1FF032DE980494FEA154B9A
:1028A00009B44FEA144325EA0B4E24EA03480FF219
:1028B000042606EB132749083E785FEA320203FB41
:1028C0000667C7F5000707FB06F64FEA54374FEADD
:1028D000D64606F1020607FB066CCCF1005C4FEA17
:1028E0001C472CEA074C07FB06F40CFB06F504EB2F
:1028F00015464FEA961634BF00204FF000404FEACD
:10290000D13706FB07FC4FEA1C4C0CFB0BF7D21B24
:1029100003FB0CF761EB07010CFB0EF7B0EB074074
:1029200072EB17420CFB08F734BFA2EB0742B2EB85
:10293000074261EB17414FEA0C444FEA910706FB4F
:1029400007FC4FEA1C4C0CFB0BF7B0EBC74072EBDB
:10295000573203FB0CF734BFA2EBC742B2EBC742BE
:1029600061EB57310CFB0EF7B0EBC70072EB5772FF
:102970000CFB08F734BFA2EBC702B2EBC70261EB56
:102980005771039F4FEA816141EA921104EBCC0435
:102990004FEAD1374FEA826206FB07FC42EA901207
:1029A0004FEA80604FEA1C4C0CFB0BF7D21B03FB79
:1029B0000CF761EB07010CFB0EF7B0EB074072EB75
:1029C00017420CFB08F734BFA2EB0742B2EB0742F9
:1029D00061EB17414FEA8C554FEA910704EB9C24B9
:1029E00006FB07FC4FEA1C4C0CFB0BF7B0EBC74097
:1029F00072EB573203FB0CF734BFA2EBC742B2EBCA
:102A0000C74261EB57310CFB0EF7B0EBC70072EB1E
:102A100057720CFB08F734BFA2EBC702B2EBC70238
:102A200061EB577115EB4C254FEA816141EA921138
:102A30004FEA82624FEAD13742EA901206FB07FC66
:102A400044F100044FEA80604FEA1C4C0CFB0BF78A
:102A5000D21B03FB0CF761EB07010CFB0EF7B0EB8D
:102A6000074072EB17420CFB08F734BFA2EB07429A
:102A7000B2EB074261EB174115EB1C154FEA8131B0
:102A800041EA92414FEA823242EA90424FEA803074
:102A90004FEA0C7644F1000448EA03434EEA0B483F
:102AA0004FF0000EB2EB080C71EB030724BF624637
:102AB00039464EEB0E0E4FF0000B001852414941C3
:102AC0004BEB0B0BB2EB080C71EB03077BF1000B2C
:102AD00024BF624639464EEB0E0E4FF0000B001835
:102AE000524149414BEB0B0BB2EB080C71EB030766
:102AF0007BF1000B24BF624639464EEB0E0E51EAC5
:102B0000020718BF46F0010616EB0E7655F10002DB
:102B100054F1000103D5BDE88901BDE80088BDE896
:102B20008901BDE80048B619524141EB0101A3F10A
:102B30000103704780807F7E7D7C7B7A7978777611
:102B400076757473727171706F6E6E6D6C6C6B6A8A
:102B50006A69686867666665646463636261616028
:102B6000605F5F5E5E5D5D5C5C5B5B5A5A595958A5
:102B7000585757565655555554545353525252510F
:102B8000515050504F4F4F4E4E4D4D4D4C4C4C4B65
:102B90004B4B4A4A4A4949494848484747474746AC
:102BA00046464545454444444443434343424242E8
:102BB0004241414146EA0646A3F570534FEA1646A4
:102BC00046EA42564FEAD22242EA415210B54FEA53
:102BD000D121A3F1010300F02FF820F0004000F113
:102BE000020C00F0004701EB00501146BCF5006FED
:102BF00040EA070000D210BDBAF1000F0AD01CB5A0
:102C000003B44FF004004FF004014FF000000FBC7C
:102C1000BDE810404FF00001BBF1010FB9BF0448FF
:102C20004FF0FF310348002140EA070010BD00BF0C
:102C3000FFFFEF7F0000F07F002B9C4630D4770031
:102C40002BD01CB54FEA370703B44FF010004FF0FC
:102C50001001BAF1000F06D0BCF1000FDCBF40F04C
:102C6000080040F008014FF000000FBCBDE8104024
:102C70000BF1010BBBF1010F08BF5FEA170722BF81
:102C800012F1010211F101014FF0004143F1000383
:102C900000F0004043EA00007047F9D35708D0E73E
:102CA00046EA064613F1400F4FEA16461FDD13F1C0
:102CB000200FDFBF16430A46002120335B42BED0FF
:102CC000C3F1200746EA064602FA07F74FEA16461E
:102CD00046EA0706C3F1200722FA03F201FA07F7D2
:102CE00021FA03F14FF0000342EA0702A7E746EAA0
:102CF000020646EA06464FEA164646EA0106BCBF09
:102D000046EA0646360C4FF000034FF000024FF043
:102D1000000194E72DE9804C9A46934670B491E8FF
:102D2000380007C831EA400C48BF34EA430C03D5E9
:102D3000FFF7A4FDFFF780FFF0BCBDE8008C2DE994
:102D4000804C9A46934670B491E8380007C831EA3F
:102D5000400C48BF34EA430C03D5FFF78FFDFFF763
:102D600029FFF0BCBDE8008C2DE9804C9A469346C3
:102D700070B491E8380007C810F0804F08BF13F016
:102D8000804F03D100F01AF8FFF756FFF0BCBDE802
:102D9000008C2DE9804C9A46934670B491E8380037
:102DA00007C810F0804F08BF13F0804F03D100F028
:102DB00005F8FFF7FFFEF0BCBDE8008C20F07F4770
:102DC00080EA030023F07F4C07EB0C03A3F57C5350
:102DD00000F00040A3F1FE0392F0000F00F0B3807A
:102DE00095F0000F00F077802DE901494FEA11407E
:102DF0004FEA144621EA004800FB06FC24EA064795
:102E000008FB06F607FB08F800FB07F718EB064877
:102E10004CEB164C4FEA124B18EB07484FEA15469D
:102E20004CEB174022EA0B4E0BFB06FC25EA06474B
:102E30000EFB06F607FB0EFE0BFB07F71EEB064E1E
:102E40004CEB164C4FF000061EEB074E4CEB174BAD
:102E500018EB0B0840F1000018EB0E0B58EB0008C4
:102E600040F100008F1A4FF000013CBFC943661BC0
:102E700014BFB5EB040C00213CBFC943F61B4FEA5D
:102E800017444EEA8E0E27EA04454FEA1C4704FB1E
:102E900007622CEA074C05FB07F70CFB05F604FB61
:102EA0000CFC16EB074642EB174216EB0C4642EBC6
:102EB0001C421BEB060658EB0202414146EA9E0605
:102EC00001D5BDE80189B619524141EB0101A3F1D9
:102ED0000103BDE801894FEA14454FEA114724EA8E
:102EE000054621EA074C05FB07F406FB07F70CFB38
:102EF00006F105FB0CFC11EB074144EB17444FEACC
:102F0000124711EB0C4144EB1C4422EA074C05FB31
:102F100007F206FB07F70CFB06F605FB0CFC16EBAD
:102F2000074642EB174216EB0C4642EB1C456A186B
:102F300054F1000148BF7047B619524141EB0101FD
:102F4000A3F10103704795F0000F37D04FEA11420B
:102F50004FEA144721EA024624EA074C02FB07F134
:102F600006FB07F70CFB06F402FB0CFC14EB074412
:102F700041EB17414FEA154714EB0C4441EB1C4160
:102F800025EA074C02FB07F506FB07F70CFB06F6E4
:102F900002FB0CFC16EB074645EB174516EB0C46FF
:102FA00045EB1C42121951F1000148BF7047B61998
:102FB000524141EB0101A3F1010370474FEA14456F
:102FC0004FEA114724EA054621EA074C05FB07F1C1
:102FD00006FB07F70CFB06F24FF0000605FB0CFCA6
:102FE00012EB074241EB174112EB0C4251EB1C4133
:102FF00048BF7047921841EB0101A3F101037047EC
:1030000021B1826842F00102826003E0826822F00E
:1030100001028260704721B1826842F4807282604E
:1030200003E0826822F480728260704721B1826876
:1030300042F48012826003E0826822F4801282608F
:10304000704721B1826842F40042826003E08268E6
:1030500022F40042826070470A460021816821F410
:10306000E041114381607047014600208A6802F008
:1030700004020AB1012000E0002070470146002050
:103080008A6802F008020AB1012000E000207047BF
:1030900030B502460020002350680F4C20400D79C7
:1030A0000C6844EA05242043506090680B4C204093
:1030B000D1E902542C434D7944EA45042043906001
:1030C000D06A20F470000C7C641EE4B2234340EA12
:1030D0000350D06230BD0000FFFEF0FFFDF7F1FFAE
:1030E000F0B504461546002000220026092911DD0E
:1030F000E068A1F10A0707EB470C072707FA0CF273
:103100009043A1F10A0707EB470703FA07F21043C0
:10311000E0600CE0206901EB410C072707FA0CF294
:10312000904301EB410703FA07F210432061A06BC3
:10313000C0F30156EF1C06F1010CA7EB0C0707EBDF
:10314000870C1F2707FA0CF29043EF1C06F1010CC5
:10315000A7EB0C0707EB870701FA07F21043A06300
:10316000F0BD10B50A4600210023816B21F4401107
:10317000531E41EA0351816310BDF0B504460D466C
:1031800000200021092D11DDE068A5F10A0606EBFB
:103190004607072606FA07F18843A5F10A0606EB5B
:1031A000460603FA06F10843E0600CE0206905EBEF
:1031B0004507072606FA07F1884305EB450603FA9B
:1031C00006F108432061072A0FDA606B561E06EBF2
:1031D00086071F2606FA07F18843561E06EB860669
:1031E00005FA06F10843606322E00D2A0FDA206B2E
:1031F000D61F06EB86071F2606FA07F18843D61F5F
:1032000006EB860605FA06F10843206310E0E06A43
:10321000A2F10D0606EB86071F2606FA07F1884382
:10322000A2F10D0606EB860605FA06F10843E062F8
:10323000F0BD816841F008018160704721B182686A
:1032400042F4A002826003E0826822F4A00282605D
:103250007047816841F0040181607047002008498F
:10326000C866C86706498C3108604FF400000549FC
:103270000860C011044908604000086000BFFEE714
:103280000080214210080140100C014029B1064A7B
:1032900052680243044B5A6004E0034A5268824376
:1032A000014B5A6070470000002004E02DE9F05FF8
:1032B0008A4C72B605F03CFE054662B68848016845
:1032C000884F89070BD510342188A28811443A6BA6
:1032D000A2EBC1313A6BA2EBA111396309E021885D
:1032E000A2881144BA6AA2EBC131BA6AA2EBA11159
:1032F000B962072141607C480078032874D0DFF868
:10330000EC91D9F8000070B1D9F80000854203D3E0
:10331000D9F80000281A03E0D9F80000C043284477
:10332000B968884260D96088E188DFF8B0810144DB
:10333000B7F9140008F1200828F810102289A38991
:1033400008F180061A4426F810206389E48906F102
:10335000800C23442CF81030B7F91640401C90FB29
:10336000F4FA04FB1A0000B2B88238F81080A1EB1E
:103370000801D7F818804144B96136F81060921BF3
:10338000FE693244FA613CF81000181A3B6A18448E
:1033900038628B181E18B6FBF4F45A2C24D9544CFE
:1033A0002678002E20D02478022C1DD0BC6BA5429C
:1033B00002D3BC6B2E1B02E0BC6BE44366197C6C31
:1033C000A64211D9002497F834A04FF0010CA04672
:1033D000BAF1000F09D102EB000BB1EB5B0F04D384
:1033E00087F834C006243AE075E0BAF1000F08D03F
:1033F00002EB000AB1EB5A0F03D887F8348003249C
:103400002DE097F835A0BAF1000F08D101EB000BC1
:10341000B2EB5B0F03D387F835C004241FE0BAF189
:10342000000F0BD00144B2EB510F07D887F835805D
:1034300001243048006803F048F910E097F836108E
:1034400031B9B0EB530F03D387F836C0022406E03E
:1034500029B1B0EB530F02D887F836800524002C31
:1034600039D03869864236DDF868864200DD064686
:10347000386C396CC0EBC63001EBE0003864386C56
:10348000C013F8631C480470C9F80080F86BB7F9E2
:103490000410B0FBF1F1B7F91600801C00EB8002BC
:1034A00002EBC00000EBD070FA6B4010C0EB520092
:1034B000FA6B401A114905F0B5FDBD6301F09EFBA2
:1034C000F86B00EB400080087864B86AF96A8842BB
:1034D00001DDB86AF862BDE8F09F0000BC0300207F
:1034E0000000024028000020A30300201403002055
:1034F000480300203803002004030020556700081B
:1035000010B54FF4005000F011F80021054800F00C
:103510001BF8054801684068814201D005F0A0FB16
:1035200010BD000044000240A01E002000F08051A9
:1035300011B10349086001E002494860704700008A
:10354000040402400000024021B1026842F001027E
:10355000026004E002684FF6FE731A400260704792
:1035600001684FF6FE721140016000210160416068
:103570008160C1604B49884208D14A49083949688D
:1035800041F00F01474A083A51608AE04549143139
:10359000884208D143490839496841F0F001414A5D
:1035A000083A51607DE03F492831884208D13D49C1
:1035B0000839496841F470613A4A083A516070E04C
:1035C00038493C31884208D136490839496841F4C4
:1035D0007041344A083A516063E0324950318842C0
:1035E00008D130490839496841F470212D4A083A18
:1035F000516056E02B496431884208D12949083985
:10360000496841F47001274A083A516049E0254968
:103610007831884208D123490839496841F07061FE
:10362000204A083A51603CE01F49884206D1011FF8
:10363000096841F00F01021F116032E01A4914318C
:10364000884208D11849091F096841F0F001164A5B
:10365000121F116025E014492831884208D112490F
:10366000091F096841F470610F4A121F116018E0C8
:103670000D493C31884208D10B49091F096841F4C2
:103680007041094A121F11600BE00749503188420E
:1036900007D10549091F096841F47021024A121F28
:1036A0001160704708000240080402400146486863
:1036B00080B270471AB103680B43036002E00368ED
:1036C0008B430360704710B50022026847F6F07321
:1036D0009A430C6A8B6823430C6923434C69234348
:1036E0008C692343CC6923434C6A23438C6A23436C
:1036F0001A430260CB6843600B6883604B68C36009
:1037000010BD00000149086070470000140401402A
:10371000014600200022074B1B6803EA0102054B0B
:1037200014331B680B4013B10AB1012000E00020E4
:103730007047000000040140002123498279002ADB
:103740003AD00A46126803689A430B461A600A1D6B
:10375000126803689A430B1D1A60027911440A68C3
:1037600003681A430A60184A0832126803689A43C9
:10377000154B08331A601A1D126803689A43124BDE
:103780000C331A604279102A0ED11A1F126803688E
:103790001A430D4B08331A601A1D126803681A4346
:1037A000094B0C331A600DE00749427911440A684D
:1037B00003681A430A6005E0027911440A68036845
:1037C0009A430A6070470000000401400149C86044
:1037D000704700000020024030B5044604254FF435
:1037E000302000F085F80546042D17D10C480069FB
:1037F00040F002000A49086108464461006940F04F
:10380000400008614FF4302000F072F8054604488B
:10381000006941F6FD71084001490861284630BD44
:103820000020024004200B49C96801F0010109B1E0
:1038300001200EE00749C96801F0040109B1022026
:1038400007E00449C96801F0100109B1032000E054
:1038500004207047002002400348006940F08000C7
:1038600001490861704700000020024078B5064613
:103870000C46042500200090E80200F039F80546C7
:10388000042D24D11348006940F00100114908615A
:103890003480E80200F02CF80546042D10D1B01C4D
:1038A0000090200C00990880E80200F021F80546FD
:1038B0000848006941F6FE7108400649086106E0C3
:1038C0000448006941F6FE71084002490861284633
:1038D00078BD0000002002400248034948600348C8
:1038E000486070472301674500200240AB89EFCD57
:1038F00000B502460423FFF795FF034603E0FFF7F8
:1039000091FF0346521E012B01D1002AF7D102B9C3
:103910000523184600BD2DE9F0410246002500268A
:10392000002000230024002791F803C00CF00F05AD
:1039300091F803C00CF0100CBCF1000F03D091F80B
:1039400002C04CEA050591F800C0BCF1000F31D06F
:10395000146800202BE04FF0010C0CFA00F3B1F8D2
:1039600000C00CEA03069E4220D183004FF00F0CEA
:103970000CFA03F7BC4305FA03FC4CEA040491F883
:1039800003C0BCF1280F06D14FF0010C0CFA00FC6B
:10399000C2F814C00AE091F803C0BCF1480F05D189
:1039A0004FF0010C0CFA00FCC2F810C0401C0828B3
:1039B000D1D31460B1F800C0BCF1FF0F34DD5468FE
:1039C00000202EE000F1080C4FF0010808FA0CF37B
:1039D000B1F800C00CEA03069E4221D183004FF0EB
:1039E0000F0C0CFA03F7BC4305FA03FC4CEA040481
:1039F00091F803C0BCF1280F05D100F1080C08FABA
:103A00000CF8C2F8148091F803C0BCF1480F07D13C
:103A100000F1080C4FF0010808FA0CF8C2F8108009
:103A2000401C0828CED35460BDE8F081F0B50A46AA
:103A3000002300240021002500F00046B6F1004FCD
:103A400002D11D4EF16901E01B4E7168C0F30345C0
:103A500083B200F44016B6F5401F08D121F0706122
:103A6000154E766826F07066134F7E6012E000F403
:103A70008016B6F5801F06D1032606FA05F4A14389
:103A800041F0706106E0460D360103FA06F6B143D7
:103A900041F0706122B1460D360103FA06F631435A
:103AA00000F00046B6F1004F02D1034EF16101E093
:103AB000014E7160F0BD0000000001400020084987
:103AC000C866C86706498C3108604FF40000054994
:103AD0000860C011044908604000086000BFFEE7AC
:103AE0000080214210080140100C014000200849CC
:103AF000C866C86706498C3108604FF40000054964
:103B00000860C011044908604000086000BFFEE77B
:103B10000080214210080140100C014070B50021C6
:103B200000230F22C47804B3154C246804F4E06425
:103B3000C4F5E064210AC1F10403CA40447804FAE0
:103B400003F184781440214309010E4C0678A155F5
:103B5000047804F01F050124AC4005786D11AD0018
:103B600005F1E025C5F8004109E0047804F01F05DF
:103B70000124AC40044D0678761145F8264070BD0E
:103B80000CED00E000E400E080E100E010B500286A
:103B900007DA0A07140E054A00F00F031B1FD4545E
:103BA00003E00A07130E024A135410BD18ED00E09B
:103BB00000E400E010B54FF48030FFF7A9FDA0B19C
:103BC000042004F027FA094800688088074909683A
:103BD00009684861064800688088054909680968DD
:103BE00048614FF48030FFF78DFD10BD3403002095
:103BF00030030020014908617047000000000E42B8
:103C000001460020034A106820F0E00008431060DD
:103C1000704700000070004001460020034A5068D1
:103C200020F44040084350607047000000100240FC
:103C300029B1064A52690243044B5A6104E0034A1F
:103C400052698243014B5A617047000000100240E4
:103C500029B1064AD2690243044BDA6104E0034AFF
:103C6000D2698243014BDA617047000000100240C4
:103C700029B1064A92690243044B9A6104E0034A5F
:103C800092698243014B9A61704700000010024024
:103C90000348406A40F08070014948627047000064
:103CA0000010024030B500210022002400232D4DD9
:103CB0006D6805F00C0121B1042905D0082923D134
:103CC00005E0294D056022E0274D05601FE0254DE8
:103CD0006D6805F47012234D6D6805F4803402257B
:103CE00005EB92421CB9214D554305600BE01D4D7B
:103CF0006D6805F400351DB11C4D5543056002E0AB
:103D0000194D5543056002E0174D056000BF00BF27
:103D1000144D6D6805F0F0010909154D6B5C0568DF
:103D2000DD4045600F4D6D6805F4E061090A104DF6
:103D30006B5C4568DD4085600A4D6D6805F4605137
:103D4000C90A0B4D6B5C4568DD40C560054D6D686B
:103D500005F44041890B074D6B5CC568B5FBF3F575
:103D6000056130BD0010024000127A0000093D00DC
:103D7000000000201000002010B5014600220023A2
:103D800000204A11012A02D1094C236806E0022AC8
:103D900002D1074C236A01E0054C636A01F01F025F
:103DA000012494401C400CB1012000E0002010BD13
:103DB00000100240014908607047000000004242C4
:103DC00010B500F001F810BD0CB500200190009076
:103DD0003348006840F480303149086000BF304803
:103DE000006800F4003000900198401C0190009899
:103DF00018B90198B0F5A06FF1D12948006800F416
:103E0000003010B10120009001E0002000900098E7
:103E1000012843D12348006840F010002149086080
:103E20000846006820F0030008600846006840F07B
:103E3000020008601A48406819494860084640680E
:103E400048600846406840F4806048600846406822
:103E500020F47C1048600846406840F4E810486050
:103E60000846006840F08070086000BF0C48006899
:103E700000F000700028F9D00948406820F00300E5
:103E8000074948600846406840F00200486000BFAB
:103E90000348406800F00C000828F9D10CBD000070
:103EA00000100240002002402DE9F04104F00AF920
:103EB0003248006805F088FE0446314905F0E4FE0A
:103EC0003049086030490968304A1268881A05F09C
:103ED0007BFE04462E480168204605F0D5FE2D499C
:103EE00008602D490968294A1268881A05F06CFE95
:103EF000044627480168204605F0C6FE27490860A9
:103F000027480078032802D102F0FEFF07E004F002
:103F1000E5FC04F04DFA2348006804F049FC22480F
:103F2000006805F069FE06462048006805F064FE5A
:103F300007461F4909681F4A1268881A05F05CFE87
:103F400080461D4905F0A0FE0546394605F09CFE59
:103F50000446314605F006FD18490860144800681B
:103F60001449086000201049086001F0EBF814487B
:103F70000068401C12490860BDE8F081580000202C
:103F80009C65CA3388030020500000204C000020AC
:103F9000280000208003002054000020840300201B
:103FA000A303002000030020440300203C03002062
:103FB00040030020780300200000C8427C0300205A
:103FC0007403002010B51348006840F00100114947
:103FD000086008464068104908400E494860084695
:103FE00000680E4908400B4908600846006820F444
:103FF000802008600846406820F4FE0048604FF4C6
:104000001F008860FFF7DCFE4FF000600449086085
:1040100010BD0000001002400000FFF8FFFFF6FE98
:1040200008ED00E0F0B50C46154600220021068C94
:104030004FF6FE773E400684028B018C4FF60C76DD
:1040400032407E1C06EA03162E433243104EB04225
:104050000ED0104EB0420BD0B0F1804F08D00E4EB3
:10406000B04205D00D4EB04202D00D4EB04206D146
:104070004FF6FD76314044F00106314305E04FF63E
:10408000F576314044F00106314302830184F0BDEE
:10409000002C0140003401400004004000080040B2
:1040A000000C0040F0B50C46154600220021002609
:1040B000078C4FF6EF7C07EA0C070784028B018C14
:1040C0004FF6FF7707EA041640F6FF473A404FF6EF
:1040D000FF7707EA03373A434FF6FF7707EA0527EA
:1040E0003A43114FB8420ED0104FB8420BD0B0F146
:1040F000804F08D00E4FB84205D00E4FB84202D0C4
:104100000D4FB84206D14FF6DF77394046F0100721
:10411000394305E04FF65F77394044F010073943E3
:1041200002830184F0BD0000002C014000340140F6
:104130000004004000080040000C004070B5214819
:104140000088012121EA90061E4824300588001DC0
:1041500004881D48007860B9012E0AD1281BB0F5EB
:10416000F07F06DD281BB0F5117F02DA03F01CFC9E
:1041700026E016480078E0B91548B0F900008542FD
:1041800017DB1448B0F90000854212DC1248B0F980
:10419000000084420DDB1148B0F90000844208DCC5
:1041A00076B90F4800680F490860204603F0C4FF45
:1041B00006E006480078042802D1304603F02AFAC7
:1041C00070BD0000102C014048030020490300206E
:1041D00060030020620300206403002066030020C7
:1041E000B40300207003002010B50221480700F03E
:1041F0005CF878B14FF6FD708107088280078089EE
:104200004FF6FD71084089078881194A5068116886
:1042100088472CE00421080700F047F888B14FF6E2
:10422000FB704FF080410882084680894FF6FB7191
:1042300008404FF0804188810D4AD06891688847D6
:1042400015E00821C80600F030F880B14FF6F7708D
:104250004FF080410882084680894FF6F771084088
:104260004FF080418881024A50691169884710BD2A
:10427000B41F002021B1028842F08002028004E0D5
:1042800002884FF67F731A4002807047CA43028249
:10429000704721B1028842F00102028004E00288E6
:1042A0004FF6FE731A400280704730B50246002078
:1042B00000230024158A05EA0103958905EA010413
:1042C00013B10CB1012000E0002030BD70B5002416
:1042D00000220023058C4FF6FE7635400584028CC3
:1042E0008388048B4FF68F752C40B51E2C400D88AB
:1042F0002C43751E2A400D892A434D882A43144DAC
:10430000A8420BD0134DA84208D0134DA84205D0A7
:10431000124DA84202D0124DA84213D14FF6F775A4
:104320002A404D892A434FF6FB752A408D882A433F
:104330004FF6FF652B404FF6FF552B408D892B43E1
:10434000CD892B4383800483CD888586028470BD0C
:10435000002C014000340140004001400044014075
:10436000004801400A460021018B4FF6F7731940BF
:10437000114301837047000070B500240022002320
:10438000058C4FF6EF7635400584028C8388048BCC
:1043900048F6FF752C404FF6FF452C400D884FF630
:1043A000FF7606EA05252C434FF6DF752A400D8976
:1043B00006EA05152A434D8806EA05152A43154DD8
:1043C000A84202D0144DA8421DD14FF67F752A4055
:1043D0004D894FF6FF7606EA05152A434FF6BF755D
:1043E0002A408D8806EA05152A434FF6FF352B40F3
:1043F0004FF2FF752B408D8906EA85052B43CD8949
:1044000006EA85052B4383800483CD8805870284D3
:1044100070BD0000002C0140003401400A4600211C
:10442000018B4FF2FF7319404FF6FF7303EA02232B
:10443000194301837047000070B500240022002357
:10444000058C4FF6FF6635400584028C8388848B8B
:104450004FF68F752C404FF6FC752C400D882C4381
:104460004FF6FF552A400D894FF6FF7606EA0525DF
:104470002A434D8806EA05252A43154DA84202D055
:10448000144DA8421DD14FF2FF752A404D894FF6B9
:10449000FF7606EA05252A434FF6FF352A408D8828
:1044A00006EA05252A434EF6FF752B404DF6FF75AB
:1044B0002B408D8906EA05152B43CD8906EA0515A3
:1044C0002B4383808483CD888587028470BD000060
:1044D000002C0140003401400A460021818B4FF638
:1044E000F7731940114381837047000070B50022B3
:1044F00000230024058C4EF6FF7635400584038C9E
:104500008488828B48F6FF752A404FF6FF452A4083
:104510000D884FF6FF7606EA05252A434DF6FF750E
:104520002B400D8906EA05352B434D8806EA0535F3
:104530002B430B4DA84202D00A4DA84208D14BF69E
:10454000FF752C408D894FF6FF7606EA85152C43C2
:1045500084808283CD88A0F84050038470BD000021
:10456000002C0140003401400A460021818B4FF2AB
:10457000FF7319404FF6FF7303EA02231943818347
:1045800070470021018041808180C180018141818B
:104590008181C18170472DE9F04105460C46002616
:1045A0000127608808B9022600E00026A0880128BB
:1045B00001D1022700E001272088A0B92389A28821
:1045C00061882846FFF72EFDE188284600F03CF878
:1045D00023893A4631462846FFF764FDE18828469C
:1045E00000F03BF813E02389A28861882846FFF792
:1045F00059FDE188284600F030F823893A463146D3
:104600002846FFF70FFDE188284600F01DF8BDE8B9
:10461000F0810A46002101894FF68F73194011433A
:104620000181704702894FF67F731A400281028927
:104630000A430281704702894FF6F8731A400281DB
:1046400002890A4302817047028B4FF6F3731A40C6
:104650000283028B0A4302837047028B4FF2FF33BF
:104660001A400283028B4FF6FF7303EA01231A43B9
:1046700002837047002202881D4B98420ED01D4BCA
:1046800098420BD0B0F1804F08D01B4B984205D018
:104690001A4B984202D01A4B984204D14FF68F73AE
:1046A0001A404B881A43174B984207D0164B984232
:1046B00004D04FF6FF431A40CB881A4302808B8800
:1046C00083850B8803850A4B98420BD0094B98428F
:1046D00008D00E4B984205D00D4B984202D00D4B9E
:1046E000984201D10B7A0386012383827047000030
:1046F000002C01400034014000040040000800404C
:10470000000C004000100040001400400040014038
:1047100000440140004801404FF6FF7181800021B4
:104720000180C18041800172704721B1828942F4C9
:104730000052828104E082894DF6FF731A40828123
:1047400070471AB1838A0B43838202E0838A8B43CA
:10475000838270472DE9F04786B005460E46002457
:10476000A24600BFA1460027B08900B100BF2F4676
:104770002C8A4CF6FF700440F08804432C82AC89EC
:104780004EF6F3100440B08831890843718908431C
:104790000443AC81AC8A4FF6FF400440B089044327
:1047A000AC8201A8FFF77EFA1F48874202D1DDF8EC
:1047B00010A001E0DDF80CA0A88900F4004040B191
:1047C0000AEBCA0000EB0A1031684900B0FBF1F8AF
:1047D00007E00AEBCA0000EB0A1031688900B0FB61
:1047E000F1F86420B8FBF0F004012009642101FB1A
:1047F0001089A88900F4004040B1322000EBC900C4
:10480000B0FBF1F000F00700044308E0322000EBB9
:1048100009106421B0FBF1F000F00F0004432C817B
:1048200006B0BDE8F08700000038014000200849CC
:10483000C866C86706498C3108604FF40000054916
:104840000860C011044908604000086000BFFEE72E
:104850000080214210080140100C0140490050EA3C
:10486000C12018BF04204A0D18BF40F0010040F2DB
:10487000FF72B2EB515F08BF40F00200012808BF91
:10488000052070474100080218BF04200A0E18BF17
:1048900040F001004FF07F4232EA010108BF40F0D2
:1048A0000200012808BF0520704740F201320020B5
:1048B0004FF0E04105F056BC024A0020110705F018
:1048C00051BC000001FDFFFF012105F079BC002172
:1048D000084605F047B86FF05E01080705F070BCA8
:1048E00010B50446D1E9000100F0B6F8206010BD13
:1048F0002DE9F04D0D4614464FF07F41B1EB440FCA
:104900009EBF4FF0FF312960BDE8F08D4FF00040B1
:1049100040EA0421C4F3C750783810F01F024A4B14
:104920004FEA601CC2F120067B44C4F3C750A0F1DB
:1049300078004FEA601003EB800053F82C3008BF7A
:10494000D0E901C612D0D0F804C093402CFA06F783
:104950003B4387680CFA02FC27FA06F8C06807FA9E
:1049600002F2F0404CEA080C42EA0006A3FB0132D6
:10497000ACFB01C0A6FB016101EB0C068E4234BF0B
:104980004FF0010C4FF0000CC1186144BCF1000F56
:1049900002D0814202D903E0814201D2012000E02D
:1049A0000020104400F120024FEA92188006CA0C41
:1049B00040EA42304F03C5F8008005F005F9824611
:1049C000384605F019F96FF0120105F0F9FB0746BA
:1049D000304605F011F96FF0250105F0F1FB834633
:1049E0003946504604F04AFF594604F047FF00F5A7
:1049F00000666FF30B065146304605F005FB39465D
:104A000005F002FB594605F06DFA104905F03CF936
:104A100007460F49304605F037F9394604F02EFFB6
:104A200007460C49304605F02FF9394604F026FFB9
:104A300014F0004F08BFBDE8F08DC8F1805180F040
:104A400000402960BDE8F08D945A0000DB0FC92FAB
:104A500022AAFD290000C92FF8B504460D466A4672
:104A600002F060FB00987E30009000281EDC0022DF
:104A700013462046294604F015FD17D0002140F6C4
:104A800008004FF0000006462046294604F06CFB63
:104A9000044640F6080006EA00014FF0000034F03A
:104AA000004004BF0220FCF7C1F829E00098FF286D
:104AB00028DB002108464FF0000000F440060022E9
:104AC00013462046294604F077FE8CBF00250125B9
:104AD0000220FCF7ABF84FF0FF4446B1002D0CBFAD
:104AE0004FF400004FF48000B04218BF084C04217E
:104AF00008464FF00000002D04BF84F00040F8BDD0
:104B00002046F8BD20462946BDE8F84004F02CBBFD
:104B1000FFFF7F7F10B504460A46D4E9000319461B
:104B200002F02FFBC4E9000110BD00000146084659
:104B3000124A127802B90020114B18801B1D1880F0
:104B40001B1D18800F4A1278B2B10F4B1A68D31789
:104B500002EB537301EBE300002801DA002005E0CB
:104B6000094A1268904201DD074A1068074B188015
:104B70001B1D18801B1D1880704700004803002073
:104B80003408004018030020F802002038040040D8
:104B900001880A4A11804188121D11808188121DE6
:104BA000118001881231064A118041881231121D8C
:104BB000118081881231121D118070473408004025
:104BC0003804004030380A2801D201207047002004
:104BD000704710B504462046FEF72BFB00BF204669
:104BE000FEF74CFA0028FAD12046FEF732FB00BF50
:104BF0002046FEF739FA0028FAD110BD10B50E484C
:104C00000068800904B20D48B0F90000401C8442DD
:104C100007DD0A48B0F90000402802DA00F010F879
:104C200009E00648B0F90000401EA04203DD012C57
:104C300001DD00F027FA10BD640000203E000020D6
:104C4000224A2149B2F9002031F81210204A126894
:104C500011441F4A11601D4A1E49B2F9002031F863
:104C600012101D4A126811441B4A1160174A1B4951
:104C7000B2F9002031F81210194A12681144184A8A
:104C800011601849B1F9000012E00F4A411E32F8D4
:104C9000111022F810100F4A411E32F8111022F89C
:104CA00010100E4A411E32F8111022F81010401E4A
:104CB0000649B1F900108842E7DC0A49094A098827
:104CC000491C09B211807047DC0300203C00002021
:104CD000400000205C04002044000020DC04002090
:104CE000480000203E00002000B591B000F028F9F7
:104CF0008C49402008808C48FEF732FC8B4801909C
:104D00008B4802900820049000200390059080209A
:104D100006908000079080000890202009904FF4B2
:104D200040500A9000200B9001A97F48FEF7CBFC71
:104D3000012206217C48FEF7BDFC0720FEF7F6FBAA
:104D400001217948FEF700FC0B208DF800000220BD
:104D50008DF8010000208DF8020001208DF803007D
:104D60006846FEF7DBFE4FF480300C9001208DF892
:104D700034008DF835004FF460200E9000200F9025
:104D800008208DF8400069480CA94C38FEF780F9DE
:104D9000664801231A4605214C38FEF7EEF96348B0
:104DA0000123022205214C38FEF7E7F95F48012371
:104DB000032202214C38FEF7E0F95C48012304226B
:104DC00002214C38FEF7D9F9584801230522042165
:104DD0004C38FEF7D2F955480123062204214C38FD
:104DE000FEF7CBF951480123072202214C38FEF788
:104DF000C4F94E480123082202214C38FEF7BDF9C0
:104E00004A4801214C38FEF706F94FF480300C90E7
:104E100001208DF834008DF835004FF460200E909D
:104E200000200F9008208DF840000CA94148FEF7A3
:104E30002FF901231A4619463E48FEF79EF9012331
:104E4000022219463B48FEF798F903220123114636
:104E50003848FEF792F90123042203213548FEF772
:104E60008CF90123052219463248FEF786F9012301
:104E7000062219462F48FEF780F901230722032155
:104E80002C48FEF77AF90123082203212948FEF76E
:104E900074F901212748FEF7C9F8244801214C384C
:104EA000FEF7AEF821484C38FFF793FE0121214868
:104EB000FEF7A6F81F48FFF78CFE1F481F49006841
:104EC00008601A4801214C38FEF74BF901211948B6
:104ED000FEF747F9154801231A4605214C38FEF71D
:104EE000FFF801231A4604211248FEF7F9F80F488B
:104EF00001214C38FEF7A5F801210E48FEF7A1F874
:104F00000A484FF4E0414C38FEF7A6F84FF4E04170
:104F10000848FEF7A1F8054801214C38FEF78EF944
:104F200011B000BD3E000020080002404C240140AA
:104F3000BC03002000280140340000206C00002049
:104F40002DE9F05FDFF8F490D9F83070D9F84050CF
:104F5000D9F83C80D9F83460D9F838404FF07E5009
:104F6000874201DD074603E03548874200DA0746FD
:104F70003448854201DD054603E03348854200DAC6
:104F80000546DFF8C8B0D84501DDD84604E018F181
:104F9000FF4F01D34FF000082D48864201DD064641
:104FA00003E02C48864200DA06462B48DFF8ACA026
:104FB000844201DD044602E0544500DA54462849A3
:104FC000384604F061FE514604F0CCFC0146254809
:104FD00004F0C8FCDFF890A0CAF800002349284676
:104FE00004F052FE0146584604F0BCFC04F0B0FD4B
:104FF000AAF804000121404605F0E2F804F0A8FDFB
:10500000CAF808000121304605F0DAF804F0A0FDE6
:10501000CAF810000121204605F0D2F804F098FDEE
:10502000CAF80C00C9F83070C9F84050C9F83C8083
:10503000C9F83460C9F83840BDE8F09FCC050020BD
:10504000CDCC4C3D0000F041CDCCCC3D0000C84261
:105050000000FA430000A04100409C4600007A4452
:105060000080F94360325332280000205555D53F67
:10507000024AC103116002490860704768000020BD
:10508000640000202749B1F9000012E0264A411CC3
:1050900032F8111022F81010244A411C32F8111075
:1050A00022F81010224A411C32F8111022F8101078
:1050B000401C2049B1F90010491E8142E6DC1D491F
:1050C0001C4A0988491E09B211801649B2F900200C
:1050D000B1F90010914202D1124A00211180114A07
:1050E0001149B2F9002031F81210134A1268511A0E
:1050F000114A11600B4A0D49B2F9002031F8121023
:105100000E4A1268511A0D4A1160064A0849B2F94E
:10511000002031F812100A4A1268511A084A116028
:10512000704700003C000020DC0300205C040020ED
:10513000DC0400203E00002040000020440000204D
:105140004800002070B53C48006818B33B48006830
:1051500039490968B0FBF1F201FB1200D0B93648B9
:1051600000684FF47A7191FBF0F52A4634A13A4871
:10517000FBF7AEF8384803F023FD36A1204600F0D7
:10518000C1FE36A003F01CFD354803F019FD35487B
:1051900003F016FD4AE003F01FFDC5B23248016876
:1051A0000068401C304A10602D4845541046006885
:1051B000202805D110460068401E114608600A25C7
:1051C0002948006800282DD00A2D01D00D2D29D1A5
:1051D00025480068012822DD24A003F0F1FC2448C2
:1051E00003F0EEFC00211E481F4A1268815400F0B3
:1051F0005FF804464CB12068FBF76EFC184946186E
:1052000031462046A268904702E01AA003F0D8FC7D
:105210001D48007818B100201349086070BD01F0E6
:10522000ABF802E0284603F04BFD00BF03F0F8FBAB
:105230000028B0D100BFF1E7740000207403002003
:1052400054656C656D657472792040202564204832
:105250007A0D0A0A000000008C0500200A3E20009A
:105260006C0500204DA30008700000200D0A00000E
:1052700051A30008436F6D6D616E64206E6F7420E2
:10528000666F756E64000000A10300202DE9F041F7
:1052900005460C462F4626463068FBF71DFC804627
:1052A000316842463868FBF7E9FBBDE8F081000051
:1052B0001FB5044600200190029003900194054818
:1052C0000C2315220449009001A8FBF783FB04B0CE
:1052D00010BD00008D52000848A2000870B50446B9
:1052E0000D460A480078002803DD09A003F068FC99
:1052F0000BE00C480078032802D0012000F0E8F809
:1053000002F0F8FD08A003F05BFC70BD480300202C
:1053100045534320616C72656164792061726D65EB
:10532000640D0A00A30300204553432061726D659C
:10533000640D0A007CB505460C461B480078012820
:1053400004DD1A48006803F03BFC2CE06B4601AA20
:1053500017A12046FBF70AFA022803D0284601F0DD
:105360001FF820E0BDF804000A2805DBBDF80400A2
:1053700041F28831884203DD0FA003F021FC12E0E6
:10538000BDF80000012804DBBDF80000B0F57A7F0D
:1053900003DD13A003F014FC05E0BDF80010BDF818
:1053A000040001F09FF97CBD48030020B0000020FC
:1053B00025687520256875006672657175656E6370
:1053C00079206F7574206F662072616E67653A2070
:1053D0003130203D3E20353030300D0A00000000D5
:1053E0006475726174696F6E206F7574206F6620CA
:1053F00072616E67653A2031203D3E203130303099
:105400000D0A000070B504460D46094800780128D1
:1054100004DD0848006803F0D3FB08E006A003F0B1
:10542000CFFB00200D49086001200D49087070BDB8
:1054300048030020B0000020456E746572696E67F5
:105440002062696E61727920636F6D6D616E642098
:105450006D6F64652E2E2E0D0A0000007400002072
:10546000A103002070B504460D460848007818B125
:1054700007A003F0A5FB08E00CA003F0A1FB4FF68A
:10548000FF7003F03FFD02F00FFD70BD48030020E8
:105490004553432061726D65642C206469736172A9
:1054A0006D2066697273740D0A0000005265626FA8
:1054B0006F74696E6720696E20626F6F74206C6F05
:1054C00061646572206D6F64652E2E2E0D0A0000DA
:1054D00010B5044608480078A0420BD00648047076
:1054E000064850F8242006A10B48FAF7F1FE0A48B6
:1054F00003F066FB10BD0000490300207800002087
:10550000496E707574206D6F6465207365742074C6
:105510006F2025730D0A00008C0500207CB5054620
:105520000C461F480078012804DD1E48006803F07F
:1055300047FB33E06A461CA12046FBF717F9012818
:1055400003D0284600F02CFF28E018A16846FBF79E
:10555000AEFA28B900F07EFF16A003F031FB1DE083
:105560001BA16846FBF7A3FA28B901F01FF81AA09F
:1055700003F026FB12E01EA16846FBF798FA50B92B
:1055800001F040F818B11CA003F01AFB06E020A0BF
:1055900003F016FB02E0284600F002FF7CBD00008D
:1055A00048030020B0000020253873006465666160
:1055B000756C7400434F4E4649473A2064656661F6
:1055C000756C7473206C6F616465640D0A00000073
:1055D0007265616400000000434F4E4649473A201F
:1055E0007265616420666C6173680D0A00000000DA
:1055F0007772697465000000434F4E4649473A2070
:1056000077726F746520666C6173680D0A00000024
:10561000434F4E4649473A20777269746520666C5D
:10562000617368206661696C6564210D0A00000081
:1056300070B504460D46052002F0ECFC0120FFF792
:1056400047FF02A003F0BCFA70BD000045534320A1
:1056500064697361726D65640D0A00002DE9F84F8D
:1056600005460C461D480078042804DA1C480068EA
:1056700003F0A6FA30E06A461AA12046FBF776F856
:10568000012803D0284600F08BFE25E0009802F0A8
:10569000E7FC18B914A003F093FA1DE01A4800685B
:1056A00004F092FA82461948006804F08DFA8346A5
:1056B000514604F057F98146154904F0E5FA0646CB
:1056C00004F0B0F807463A460B4612A11848FAF71C
:1056D000FFFD174803F074FABDE8F88F4803002077
:1056E000B40000202566000064757479206F75741D
:1056F000206F662072616E67653A2030203D3E2043
:105700003130300D0A000000F802002000030020B4
:105710000000C8424665742064757479207365740E
:1057200020746F20252E326625250D0A000000000A
:105730008C0500202DE9F04F89B00E460020049022
:105740008246B1463049D1F8C00004F01DFA054642
:10575000032000FB056B2D480078042804DA2C4850
:10576000006803F02DFA4DE09BF801009BF8001053
:1057700000EB012005A921F8150099F8100004900C
:10578000012407E009EB040010F8010C504400F07C
:10579000FF0A641C0F2CF5DD0498504505D01DA0B0
:1057A00003F00EFA09B0BDE8F08F20480078012818
:1057B00004D002F033FF01201C49087005A931F81C
:1057C000150003F0ABFE07460022194B03F012FD53
:1057D0000022184BCDE9000103F0F0FECDE90201F3
:1057E00003F0C2FC144908600846006804F01AF887
:1057F0002A46CDE9000111A11648FAF769FD1548BE
:1058000003F0DEF900BFCDE7CC05002048030020FF
:10581000B4000020477A7320436865636B4469676E
:105820006974204552524F52200D0A00A3030020F4
:10583000E01DEB400088B340900300204944202540
:10584000642052504D2073657420746F20256620AB
:105850000D0A00008C05002070B505460E460FA00D
:1058600003F0AEF9002415E004EB4401114A52F8AC
:10587000210003F0A5F9202003F022FA04EB4401F3
:105880000C4A02EB8101486803F09AF90AA003F080
:1058900097F9641C152CE7D370BD0000417661694F
:1058A0006C61626C6520636F6D6D616E64733A0D3F
:1058B0000A0A000048A200080D0A0000F8B50646D2
:1058C0000D466A4613A12846FAF750FF012803D077
:1058D000304600F065FD1BE0002409E00E4951F858
:1058E000240003226946FBF7C9F800B902E0641CF2
:1058F000052CF3D300BF052C07D229463046FFF70D
:1059000097FEE0B2FFF7E4FD02E0304600F048FD0C
:10591000F8BD000025377300780000202DE9FF5FF7
:105920008B460020039002900190DA4600903748A1
:105930000078042804DA3648006803F041F963E08F
:105940009AF8000001909AF8040002909AF800007A
:105950009AF8011008449AF8021008449AF80310C3
:105960000844C0B200909AF8010000049AF80210AE
:1059700000EB01209AF8031008440390019804F00A
:105980003BF904462348D0F8C010204604F0ACF898
:1059900004D021A003F014F9BDE8FF9F00990298FC
:1059A000884207D020A12648FAF792FC244803F049
:1059B00007F9F1E723480078012804D002F02EFE11
:1059C000012020490870039803F0A8FD80464FF09D
:1059D00060421D4B03F00EFC064600221B4B03F0F9
:1059E000EDFD044603F0C0FB194908600846006855
:1059F00003F018FF044622460B4616A11048FAF79A
:105A000067FC0F4803F0DCF800BFC5E7480300203F
:105A1000B4000020CC0500204A5A532049442045B8
:105A200052524F52200D0A004A5A53204368656370
:105A30006B4469676974204552524F52200D0A0029
:105A40008C050020A3030020FFFF6F410088B340B6
:105A50009003002052504D2073657420746F2025F0
:105A600066200D0A00000000F8B506460D466A469D
:105A70001AA12846FAF77AFE012803D0304600F032
:105A80008FFC2AE000240FE0164951F82400FBF7B0
:105A900023F80746134951F824003A466946FAF7B5
:105AA000EDFF00B902E0641C042CEDD300BF042C10
:105AB00010D229463046FFF7BBFD0B490C70094850
:105AC00050F8242009A10F48FAF702FC0D4803F012
:105AD00077F802E0304600F063FCF8BD2531307302
