:020000040800F2
:10000000582600206902000871020008353A0008ED
:100010006D3A0008D1310008C54700080000000013
:100020000000000000000000000000007B0200084B
:100030007D020008000000007F020008313E000839
:1000400083020008413B0008830200088302000885
:10005000830200088302000883020008830200086C
:100060008302000883020008830200082932000886
:1000700083020008830200087D3400088302000820
:10008000830200088302000883020008830200083C
:10009000830200088302000883020008830200082C
:1000A000830200088302000883020008D54000088C
:1000B00081410008830200088302000883020008CF
:1000C00083020008830200088302000883020008FC
:1000D00083020008830200088302000883020008EC
:1000E00083020008830200088302000800F002F87F
:1000F00000F09DF80AA090E8000C82448344AAF125
:100100000107DA4501D100F092F8AFF2090EBAE822
:100110000F0013F0010F18BFFB1A43F0010318473B
:10012000DCA70000FCA700000A444FF0000C10F808
:10013000013B13F0070408BF10F8014B1D1108BF65
:1001400010F8015B641E05D010F8016B641E01F805
:10015000016BF9D113F0080F1EBF10F8014BAD1C55
:100160000C1B09D16D1E58BF01F801CBFAD505E073
:1001700014F8016B01F8016B6D1EF9D59142D6D3CD
:10018000704700000023002400250026103A28BFF5
:1001900078C1FBD8520728BF30C148BF0B607047F9
:1001A0006E2900F04981702900F01C82662909F04F
:1001B000BA87652909F0B787672909F0B4876129EB
:1001C00009F0B387692900F0FB80642900F0F8800A
:1001D000752900F0F5806F2900F0A281782900F0E0
:1001E000F4810368DB0928BF41F08001632901F035
:1001F0004E81732901F05381E32901F05E810020D3
:1002000070471FB59DE8030001F06EFC01F04CFC47
:1002100004000020002109F0C1F9401C60600020AA
:10022000002109F0A5F9E0601FBD10B510BD01F077
:1002300075FF1146FFF7E5FF07F00EFA02F0D6F959
:1002400003B4FFF7F2FF03BC02F060FA00B500BF91
:1002500000BF00BF00BF00BD00B50248D0F800D00D
:100260004068004700F0FF1F0948804709480047E1
:10027000FEE7FEE7FEE7FEE7FEE7FEE7FEE7FEE756
:10028000FEE7FEE704480549054A064B70470000B3
:100290005D3F0008ED00000858200020582600208F
:1002A000582200205822002070B5A0FB0140B4F174
:1002B000805170F1000024BF002070BD204600F086
:1002C0008CFC05001CBF214600F062FC284670BD76
:1002D0000FB41CB5074B06AA7B44694600900598ED
:1002E00001F0B3F80020694601F0C2F81CBC5DF8CB
:1002F00014FB00009511000070B504468569006884
:10030000C10601D5302600E02026C00708D070BD08
:10031000D4E9012130469047206A00F101002062B3
:100320006D1EF5D570BD70B5044685690078C007AF
:1003300008D170BDD4E9012120209047206A00F146
:10034000010020626D1EF5D570BD09684A0501D512
:1003500040B27047C905FCD500B2704709684A052C
:1003600001D5C0B27047C905FCD580B2704770B5E1
:100370000C460546012A05D02878800600D5EA6992
:10038000002302E0012305E05B1C934202D2E05C03
:100390000028F9D1A869E618C01AA861286A18448B
:1003A00028622846FFF7A8FF04E0D5E9012114F8E8
:1003B000010B9047B442F8D32846FFF7B4FF70BD55
:1003C0002DE9F0410646002410687529314616A52E
:1003D00011D0FFF7BAFF002803DAC0F1000013A51F
:1003E00007E031688A0701D511A502E0490704D565
:1003F00010A5012401E0FFF7B1FF00210A2306F157
:10040000240707E0B0FBF3F203FB1200303078540E
:100410001046491C0028F5D123462A463046BDE83F
:10042000F04100F021BC0000000000002D000000A1
:100430002B0000002000000011680268006A5305CC
:1004400001D508700BE0D30501D5088007E013063D
:1004500003D5C217C1E9000201E05206086001207D
:10046000704700002DE9FF5F15468A460446DFF815
:10047000AC80F8440027D8E900103E46CDE90010D2
:1004800011E03AF816106A4602A801F0B9FA411CC8
:1004900007D02178890603D5E269391891420ED830
:1004A000074406F101062078800602D5E069B842CB
:1004B00005DDAE42E5DB3AF816000028E1D1A0697F
:1004C000C01BA0612046FFF717FFD8E90010CDE957
:1004D0000010002016E03AF818106A4602A801F051
:1004E0008FFA8146401C0BD000250DF1080B05E06A
:1004F000D4E901211BF8050090476D1C4D45F7D349
:1005000008F10100B0428046E5DB206A38442062F1
:100510002046FFF708FFBDE8FF9F0000FA9E00009D
:1005200070B5044621461068FFF718FF002104F15A
:10053000240508E000F0070202F130026A5401F1DC
:1005400001014FEAD0000028F4D10346206808A238
:10055000050708D500F02000084304D0E069012316
:1005600004A2401EE0612046BDE8704000F07CBB64
:100570000000000030000000F0B40D4601880905BD
:1005800002D51C4C7C4402E01A4C7C440E34002101
:1005900000F1240307E002F00F064FEA1212A65DF5
:1005A0005E5401F10101002AF5D1134602781207C9
:1005B00004D5702D06D009B1113402232246F0BCB7
:1005C00000F052BB10340123F8E770B504460D4625
:1005D00021461068FFF7C2FE024629462046BDE8C4
:1005E0007040C9E70368126843F0200303600823E2
:1005F000C361C1E7F09D00002DE9F05F8946044624
:100600004FF0000ADFF878B1FB44C0F820A0204684
:10061000E1688847002875D0252806D0D4E9012153
:100620009047206A401C2062F1E700265F46204682
:10063000E16888472028054608DB312D06D207EB04
:10064000050010F8200C08B10643F0E7B00701D50B
:1006500026F00406C4F81CA00027C4F818A02A2D10
:1006600009D0284604F050FA38B304EB8708303D2F
:10067000C8F8185019E059F8041B204604EB87020B
:100680009161E1688847012F054618D1E06900288B
:1006900020DA26F020061DE0D8F8180000EB8000D4
:1006A00005EB40003038C8F818002046E16888475C
:1006B000054604F029FA0028EED1012F0AD02E2D8C
:1006C00008D12046E16888477F1C0546022F46F086
:1006D0002006C4DBA069002803DA404246F0010688
:1006E000A061F00701D026F010066C2D0BD0682D0C
:1006F00009D04C2D39D06A2D35D0742D35D07A2DB6
:1007000033D016E038E0E1682F4620468847B842EB
:10071000054609D16C2F26D04FF48060E16806436E
:1007200020468847054604E06C2F1AD04FF48070AD
:1007300006430DB3A5F14100192802D8203546F42F
:1007400000664A462946204626604E46FFF728FDA9
:1007500080B101280BD0F61D26F0070000F1080932
:1007600055E74020E4E78020D8E70020D6E706F1EF
:1007700004094CE7284651E7206ABDE8F09F0000D5
:10078000949D00000FB400B58DB010A909900091A0
:100790000B904FF0FF300A9000200C9006487844F0
:1007A0000690064878446A4607900F9909A801F018
:1007B000F7F80DB05DF814FB1F12000037120000AF
:1007C0002DE9FF5F1D464FF0FF3B91464FF00008BB
:1007D0005F46D5E90146A96901987F1C8847296AC7
:1007E000824688470028F6D11AF101000CD0002E6D
:1007F00024F4C06419DD600614D5BAF12B0F09D0BA
:10080000BAF12D0F0ED103E0584604B0BDE8F09FB9
:1008100044F48064A96901987F1C8847761E82464B
:10082000002E02DDBAF1300F03D0B9F1000F26D04F
:1008300032E0A969761E01987F1C44F40074884751
:10084000002E824605DDBAF1780F06D0BAF1580FB6
:1008500003D0B9F1000F10D01EE0B9F1000F02D0A3
:10086000B9F1100F18D1A969761E01987F1C24F4E4
:10087000007488478246102002E0082000E00A2029
:10088000814609E0A96908FB0908761E01987F1CCA
:1008900044F4007488478246002E05DD49465046E0
:1008A00000F017FE0028EDDAE96901988847A005F5
:1008B00002D46FF00100A8E7E00727D1600614D545
:1008C000600502D5C8F1000000E04046296801F14A
:1008D00004022A600968220501D5087016E0220783
:1008E00001D5088012E0086010E0286800F10401DA
:1008F00029600068210502D580F8008006E0210704
:1009000002D5A0F8008001E0C0F8008038467CE7FE
:100910002DE9FF5F4FF0000899461446464691695D
:10092000D2E901A7DDF838B001988847054659EAB1
:100930000B0005D009E0A1690198761C884705469F
:10094000216A284688470028F5D1681C03D05FEA51
:10095000CA7005D015E04FF0FF3004B0BDE8F09F3D
:100960002068011D2160D0F800800AE05FEACA70AB
:1009700001D108F8015BA1697F1E0198761C8847A8
:100980000546002F1ADD681C18D0B9F1000F0DD0F4
:10099000E81705EBD060421120F01F0059F8221033
:1009A0002A1A012090400142E0D107E0BBF1000F7C
:1009B000DCD12846216A88470028D7D0E169019810
:1009C00088470AF0010050EA0B0002D1002188F8A4
:1009D0000010A068B84203DDBBF1000F03D017B1CF
:1009E0006FF00100B9E73046B7E72DE9F0479846C8
:1009F00014460F468246DDF8209094B1012C0BD0AE
:100A00004A465046650805FB08763146904700285F
:100A10000CD00DDA2C46F0E74A463946504690474E
:100A200010B10020BDE8F0873846FBE73046F9E713
:100A3000641B641E06EB0807DFE740EA010310B5FC
:100A40009B070FD1042A0DD310C808C9121F9C425E
:100A5000F8D020BA19BA884201D9012010BD4FF050
:100A6000FF3010BD1AB1D30703D0521C07E000209D
:100A700010BD10F8013B11F8014B1B1B07D110F8FA
:100A8000013B11F8014B1B1B01D1921EF1D11846FD
:100A900010BD2DE9F041054690460E460020044663
:100AA00000E0641C44450BD2285D00F0D0F80746F6
:100AB000305D00F0CCF8381A02D1295D0029F0D160
:100AC000BDE8F0812DE9F0410E460546002400E026
:100AD000641C285D00F0BBF80746305D00F0B7F8F5
:100AE000381A02D1295D0029F2D1BDE8F08110B594
:100AF000431C02E010F8011B71B18107FAD14FF0DD
:100B0000013202C88C1A8C4314EAC211F9D0C01AFF
:100B10000A0603D0C01E10BDC01A10BD0A0401D0C1
:100B2000801E10BD0902FCD0401E10BD10B5203A39
:100B3000C0F00B80B1E81850203AA0E81850B1E896
:100B40001850A0E81850BFF4F5AF5FEA027C24BF4C
:100B5000B1E81850A0E8185044BF18C918C0BDE843
:100B600010405FEA827C24BF51F8043B40F8043B0C
:100B700008BF7047D20728BF31F8023B48BF11F8C1
:100B8000012B28BF20F8023B48BF00F8012B70471B
:100B90004FF000020429C0F0128010F0030C00F0A6
:100BA0005187CCF1040CBCF1020F18BF00F8012BE7
:100BB000A8BF20F8022BA1EB0C0100F043BF5FEAB5
:100BC000C17C24BF00F8012B00F8012B48BF00F8BE
:100BD000012B704770477047704770B5064600F0AC
:100BE0005FFF056806F10B0020F00704B4429CBFCC
:100BF000002070BD2B466A68BAB11068A04210D3BD
:100C000004F1080188423CBF5068586007D351681E
:100C1000101941601168091B016058601460101DB3
:100C200070BD13465268002AE7D12146284600F0DD
:100C300047FF0028DED170BD10B500F039FF006815
:100C400010BD10B5044600F033FF046010BD10B5B0
:100C5000044600F01DFF0068005DC00602D504F1E7
:100C6000200010BD204610BD2DE9F0470D469946E5
:100C70009246044600F124080168880604D5E0691C
:100C800021F01001216000E00120A84202DDA0EB6C
:100C9000050700E00027A16907EB050202EB090048
:100CA000A1EB0000A0612078C00602D42046FFF727
:100CB00023FB002608E0D4E901211AF8060090473A
:100CC000206A401C761C20624E45F4DB2078C0066A
:100CD0000AD52046FFF710FB06E0D4E901213020B9
:100CE0009047206A401C2062381EA7F10107F4DCFF
:100CF00007E0D4E9012118F805009047206A401C5C
:100D00002062281EA5F10105F3DC2046FFF70BFB4E
:100D10002078000602D50220BDE8F0870120FBE71D
:100D200070472DE9FF4F0C461E464FF0FF378BB042
:100D3000D2E90001DDF860800A908A46C1F30A55C5
:100D400005B93D46002108464FF00000BAF1000FFA
:100D500000F4400005DA00EB80004FF4400101EAA6
:100D600050004FEA9059B9F1010F00DDB9460A98D9
:100D700050EA4A000ED044F61050A5F2FF35454324
:100D80002F14B8F1000F1ED07542291E1EDDC9F1C7
:100D900000021CE0B8F1010F4FF0000001D030213B
:100DA00003E0F24305E02154401CB042FBDB304637
:100DB0000022002121540B99C1F80880C1E90020CC
:100DC0000FB0BDE8F08FBD1B6D1CDEE74A4600DAB0
:100DD000694206A801F02CF906AB07CB03AB07C3A9
:100DE00050460A9901F0B8FC8DE80700A0F50050C4
:100DF0001F3800900398002D09DD42F21F014A467A
:100E0000084403A90390684601F041FF08E0A0F5FB
:100E100000504A461F3803A90390684601F05FFF5F
:100E20008DE807000004000C03D04FF0FF304108AC
:100E300000E01046B8F1000F03D0002200921546E2
:100E40001FE0751E06D400F0ACFE02F130026255C0
:100E50006D1EF8D5B3460122084302D000227F1C44
:100E600004E02078302801D100227F1E002A099753
:100E700087D01DE0112D07DA00F093FE3032625565
:100E80006D1C50EA0102F5D108430FD10021681E04
:100E900005E0235C625C6354491C2254401E81427D
:100EA000F7DBAB46A81B401E099001E0009848B153
:100EB000002004F80B000B98099AC0F80880C0E9DC
:100EC000002B7DE711264FF000085AE72DE9F04F7F
:100ED00088460446D21D22F0070191B0D1E90001F5
:100EE000CDE90A0103F08AFC02460B98C00F01D03D
:100EF0002D2007E02068810701D52B2002E020216A
:100F000001EAC000032A099001D0072A05DB034645
:100F10004146204600F094FE0FE12078800601D57E
:100F2000E06900E00620B8F1650F814606D0B8F10F
:100F3000660F18D0B8F1670F72D132E00020B9F116
:100F4000110F009001DB112301E009F101030AAA4E
:100F500001A90CA8FFF7E5FEDDE90C70002609F1F8
:100F60000105834648E001204B4600904FF00047C2
:100F70000AAA01A90CA8FFF7D4FEDDE90DB00C996F
:100F80005D46002618B909F1010001EB0005B9EB37
:100F9000050003D4C0F1FF3609F10105A5EB0900F6
:100FA0002BE0B9F1010F01DA4FF001090020B9F18E
:100FB000110F0090484601DD112300E003460AAA04
:100FC00001A90CA8FFF7ADFEDDE90C704D46002627
:100FD0008346207800070AD4AB4500DA5D4601A8B5
:100FE000012D04DD411911F8011C302907D04F45AE
:100FF00002DA17F1040F04DA0120824610E06D1EB8
:10100000EEE7002F02DCED1B3E4403E0781CA84213
:1010100000DD0546A7EB060000F1010A4FF000478E
:101020002078000703D4AA4501DB4FF0FF3A0021E6
:10103000B7F1004F0DF143088DF8431023D0022083
:101040002B23002F01DA7F422D234FF00A0C011EC3
:10105000A0F1010000DC4FB197FBFCF10CFB117219
:101060000F4602F1300208F8012DF0E7A8F1010067
:1010700003702188090501D5452100E06521A0F113
:10108000010800F8011C09980FA9A1EB080707F156
:10109000070700B1012000EB050101EBEA70A1692F
:1010A0003844A1EB0000A0F10100A0612078C00647
:1010B00002D42046FFF720F9099830B1D4E9012184
:1010C0009047206A00F1010020622078C00620D5F8
:1010D0002046FFF711F91CE0002E04DBB34502DDCA
:1010E00001A8805D00E03020D4E901219047206A0A
:1010F000761C401CBAF1010A20620AD100F0D4FC2F
:10110000C0680168405CD4E901219047206A401C16
:101110002062281EA5F10105DEDC07E0D4E90121EB
:1011200018F8010B9047206A401C2062381EA7F176
:101130000107F3DC2046FFF7F6F8022011B040E685
:101140002DE9F04F04460D46D21D22F0070089B06C
:10115000D0E9009248461746394603F04FFB024655
:10116000F80F01D02D2307E02068810701D52B233C
:1011700002E0202101EAC0038DF82030D8B200B18E
:101180000120032A824601D0072A04DB2946204693
:1011900000F056FD41E12078800601D40D2500E0E5
:1011A000E569C7F30A560D2D4ADA00214FEA175BAD
:1011B00008464FF00000002F00F4400007DA00EB73
:1011C000800000EBD0714FF4400000EA610081150F
:1011D000012901DD4FF0FF3100224FEA850CBCF1FF
:1011E000180F06D31346ACF118004FF08052C240DE
:1011F00003E04FF4801323FA0CF30CF10C0CBCF158
:10120000200F04D3ACF1200C09FA0CF001E007FA2E
:101210000CF000294FF0004801DD18B910E00FD1A3
:1012200040450DD319EB02095F4121B9404502D178
:101230009F4329EA0209BBEB175F01D006F10106C3
:101240002088000502D57C48784402E07A4878443A
:10125000193808AA302302F80A30037C0AF1010188
:10126000002E0AF1020A53546A4602DC4FF03001A4
:1012700001E04FF031014FF001088DF8001002D06D
:10128000A6F2FF3603E059EA470100D06B4E002D6D
:1012900002DC2178090704D54FF002082E218DF8D1
:1012A0000110C44600210BE0C7F303433F01C35CB8
:1012B000491C6D1E02F80830052908F1010801DA01
:1012C000002DF1DC00210CE000EB1973491C1B78A8
:1012D0006D1E082902F8083008F101084FEA0919C3
:1012E00001DA002DF0DC2178890602D514E0A8F19E
:1012F0000108E04505DD02EB080111F8011C302969
:10130000F5D0B8F1000F07DD02EB080111F8011C60
:101310002E2901D1A8F10108002D05DD3E2102F89A
:1013200008106D1E08F10108407C002E02F808002C
:1013300008F1010806DA2D2002F80800764208F1CB
:10134000010804E02B2002F8080008F101080A2136
:101350004FF47A739E420ADB96FBF3F000F13007FC
:1013600003FB106602F8087008F1010801E0642E22
:101370000BDB642796FBF7F000F1300307FB1066E8
:1013800002F8083008F1010801E00A2E07DB96FB9D
:10139000F1F000F1300002F8080008F1010896FBB6
:1013A000F1F001FB106000F1300002F80800A169C3
:1013B00008F1010808EB050202EB0A00A1EB0000AE
:1013C000A0612078C00602D42046FEF795FF216A6E
:1013D00008AE01EB0A00206204E0D4E9012116F80E
:1013E000010B9047BAF1010AF7D22078C00602D566
:1013F0002046FEF781FF6E4609E016F8010B3E28F5
:101400000FD0D4E901219047206A401C2062B8F136
:101410000108F2D22046FEF786FF09B00220BDE89F
:10142000F08F206A2844206203E0D4E901213020B3
:1014300090476D1EEBD3F8E77891000002FCFFFFA8
:1014400001694A1C02610878704700B58FB0CDE988
:1014500001310021059105497944CDE90310114678
:101460006846FFF7C9F80FB000BD0000E5FFFFFFB9
:101470000A6802F8010B0A60704710B5436913B19E
:10148000AFF3008001E0FEF772FF012010BD12787B
:1014900000F124010A7000224A700122EDE7116870
:1014A0004FF0FF32E9E710B5436913B1AFF30080A5
:1014B00001E0FEF7D7FF012010BD128800F12401E2
:1014C00082840022C2840122EDE711684FF0FF32CE
:1014D000E9E73A2800D2303820F02002412A01D32F
:1014E000A2F13700884201D34FF0FF30704700006F
:1014F0002DE9FF4F064689B00878FF2806D0491C21
:101500002D2805D000244FF0000908E000200CE051
:101510000124F8E709EB8903491C00EB430908782B
:10152000FF28F7D114B1C9F10000814610780025D9
:101530002C46AA4629462D2801D02B2804D1521C1E
:101540002D2813D0002082468B461078FF280FD01C
:101550004FF0000C0A21521CA5FB017804FB01810D
:1015600005FB0C11C5194BEB0104EEE70120EAE77E
:10157000002108464FF00000BAF1000F02D000EB46
:1015800080004008C0F38158B8F1010F01DD4FF031
:10159000FF380C9809EB000755EA040006D14FEA22
:1015A000CA70C6E900B00DB0BDE8F08F17F5FA7F3C
:1015B0004FF0020904DA4FEACA70C6E900B00BE046
:1015C000B7F5FA7F0DDDF0487844D0E90010C6E9A0
:1015D000001040EACA70706000F06AFAC0F800902B
:1015E000E1E7391E02DAC8F1000200E0424600DA03
:1015F000794206A800F01CFD06AB07CB03AB07C37E
:1016000044F23E005BEA04010090584604D144F2E3
:101610001E012C465D460091210C0904014306D1B0
:101620000099240444EA15442D041039009104F073
:101630007F41014306D10099240244EA15642D023A
:101640000839009104F07041014306D1009924014A
:1016500044EA15742D01091F009104F04041014333
:1016600006D10099A40044EA9574AD00891E00914A
:1016700004F00041084304D100986D196441401EF4
:10168000009042466846002FCDE9014503A902DDDE
:1016900001F039FB01E001F00EFBBAF1000F044646
:1016A0000D4601D084F0004440F2FF7724F0004062
:1016B000284303D0C4F30A50B84212D100F0F8F91D
:1016C000C0F80090C4F30A50B8420AD1AF48784439
:1016D000D0E90010C6E9001004F000410843706032
:1016E00061E7C6E900545EE72DE9FF4F1F464FF062
:1016F000000A4FF0FF38454691B0D7E90146CDF8D2
:101700003CA000F0D1F9C0680168405C1090B96954
:1017100012986D1C8847396A814688470028F6D19F
:1017200019F101000AD0002E24F4D06412DDB9F1C1
:101730002B0F08D0B9F12D0F0CD102E0404615B0A7
:1017400032E744F48064B96912986D1C8847814679
:10175000A6F10106600504A901D52D2000E02B208B
:10176000002E01F1010B0DF130088DF810003FDD66
:10177000B9F1690F08D0B9F1490F05D0B9F16E0F71
:1017800002D0B9F14E0F1CD13B4601A80095A0E84C
:101790005002DDE912126FF0020008F052FDC11C88
:1017A000CDD10EE0B96912986D1C88478146139817
:1017B000761E44F4007405600F98401C002E0F90B4
:1017C00016DDB9F1300FEDD0B9F1780F02D0B9F1D3
:1017D000580F0DD10F9801280AD13B46CDE900548E
:1017E000DDE91212001F029608F029FDC11CA6D1E6
:1017F000109989453ED144F0800406E01399681C95
:10180000AAF1010A44F400740860B969761E1298BE
:101810006D1C884730288146F0D02BE0109989450F
:1018200005D1200603D4761E44F0800418E0484613
:1018300003F06AF908B3761E0DF123018B4544F4D9
:10184000007408D2A9F130000BF8010B200607D56F
:10185000AAF1010003E0200602D40AF10100824649
:10186000A00502D51399681C0860B96912986D1C0F
:1018700088478146002ED1DC54E0002E52DDB9F1BC
:10188000650F02D0B9F1450F4CD1A0054AD5B96911
:10189000761E12986D1C24F440748847002E8146F1
:1018A0000DDD2B2804D0B9F12D0F08D144F480743C
:1018B000B96912986D1C88478146A6F10106E005BA
:1018C00001D52D2100E02B2108F8011BCDF8008067
:1018D00021E0761E0DF13901884544F400740CD2E4
:1018E000A9F1300010F0FF0088F8000002D1009943
:1018F000884509D908F1010806E0E00501D524482A
:1019000001E042F20F708246B96912986D1C884757
:10191000814613980560002E04DD484603F0F4F874
:101920000028D6D1F96912988847FF2053468BF8D2
:10193000000088F8000000200A900B9004AA0CA96F
:101940000AA8FFF7D5FDA00502D46FF00100F6E666
:1019500014F0240F0AD0E00714D13868DDE90A1228
:10196000031D3B600068C0E900120BE00AA968464D
:1019700002F079FFE00705D13868009A011D39604F
:10198000006802602846DAE6509300004A920000A0
:10199000F1D8FFFF026811441378016018467047C0
:1019A000D1600549794451610449794411620021AB
:1019B0001161114600F084B9EDFFFFFF7F020000C6
:1019C000426842B1016811F8013B23B1521EC0E9DF
:1019D0000012184670470121C160881E7047426896
:1019E0005AB1C368016843B983688B4205D0491E68
:1019F000521CC0E90012002070474FF0FF307047C2
:101A000070B516460C46054600F042F8036893F898
:101A10000101012806D0FF2C0FD8185D68B1012004
:101A20002C7070BDD3F80701324621460344284686
:101A3000BDE8704003F2071318474FF0FF3070BD48
:101A40004FF0000200B5134694469646203922BF57
:101A5000A0E80C50A0E80C50B1F12001BFF4F7AFA2
:101A6000090728BFA0E80C5048BF0CC05DF804EB84
:101A7000890028BF40F8042B08BF704748BF20F8F2
:101A8000022B11F0804F18BF00F8012B70470000A7
:101A900010B500F009F8001D10BD00BF017B00006B
:101AA00000487047FC1F00200048704714200020A9
:101AB00000487047F41F0020704770477047704718
:101AC00038B504460A4600206946AFF30080002876
:101AD00008BF38BD02460099204600F044FB0120B3
:101AE00038BD012000F088BDF8B5AFF30080054691
:101AF00000200C46102000BF0646A819A0420DD9B0
:101B0000324669460020AFF30080070008BF00F0AE
:101B100073FD0098A04218BF0546C419FFF7C0FF27
:101B200005600746F01D20F007004619284600F022
:101B30000AF8B44208BFF8BDA21B31463868BDE8B8
:101B4000F84000F010BB00210160C0E901107047AF
:101B50001020704770B50446051FFFF7A1FF00680D
:101B6000002C14BF446870BD002C18BFA54284BF70
:101B700020466468F8D801680A18AA4218BF456070
:101B800003D12A6805461144016028684119A14221
:101B90001CBF6C6070BD6168696021680844286082
:101BA00070BD30B5B0F10A024FEA900E71F100033A
:101BB0004EEA817EB0EB0E0061EB91014FEA101E00
:101BC0004EEA017E10EB0E0041EB11114FEA102E90
:101BD0004EEA016E10EB0E0041EB11214FEA104E60
:101BE0004EEA014E10EB0E0041EB1141401841F15D
:101BF00000014FEAD00040EA41704FEAD10110EBFA
:101C000080054FEA810444EA907444EB01046D19A5
:101C100044EB0404521BA3414FF0000348BF0A32B7
:101C200000D530BD401C41F1000130BD10B5044667
:101C3000FFF72EFF0068005D00F0010010BD0000FE
:101C40002DE9F0411F46044603260168072A01F4E6
:101C5000006004DB08B116A505E016A503E008B195
:101C600015A500E015A521F010002060A069C01E98
:101C7000A0610FB1401EA0612046FEF73DFB4FB1B1
:101C8000D4E9012138469047206A401C2062C01CDC
:101C9000206206E0206AFAE7D4E9012115F8010B79
:101CA0009047761EF8D22046FEF73DFBBDE8F08156
:101CB0004E414E006E616E00494E4600696E6600F0
:101CC0002DE9F34F4FF0000A0C4656468DB0012027
:101CD0000C9001F10C000B9062690B980121904768
:101CE00005002DD0252D2CD0216A8847C0B162690E
:101CF0000B9801219047216A88470028F7D1626933
:101D0000411E0B98904700E0761CA1690D9888470A
:101D1000216A88470028F7D1E1690D988847DBE7F9
:101D2000A1690D988847A842074601D1761CD3E7E0
:101D3000E1690D9888477F1C02D1BAF1000F6FD07E
:101D40006AE162690B9800273D46394690472A2888
:101D500004D162690B98012190470125DFF8CC82FC
:101D600062690B9801219047A0F130010A290AD23B
:101D70004745E5DC07EB870100EB4107303FDFD447
:101D800045F01005ECE7E90601D46FF000476C2838
:101D90000AD04C2814D0682815D06A280DD0742891
:101DA0001CD07A281AD01DE062690B980121904757
:101DB0006C2802D045F0040514E045F002050DE062
:101DC00045F020050AE062690B98012190476828D8
:101DD00002D045F0080505E045F4006562690B98FE
:101DE00001219047C4E9015765283DD019DC5828E6
:101DF00079D00CDC452837D004DC252826D04128B2
:101E00009ED131E046282FD0472899D12CE05B287D
:101E10007FD0612828D063287BD0642890D159E0F6
:101E2000F5E06F2847D008DC66281DD067281BD056
:101E3000692821D06E2816D127E0702844D0732855
:101E400067D0752846D078280DD14CE0A1690D984F
:101E50008847252805463FF469AFE1690D98884712
:101E60006D1C3FF46AAFD7E00D9923466A466FF0C8
:101E7000010008F0E2F9C4E045F0400023464FF0CD
:101E800000026060A80735D43DE0206800F104013D
:101E900021600068290501D506701DE7290701D5D5
:101EA000068019E7A90704D54FEAE671C0E9006189
:101EB00012E7066010E745F0400023464FF00802A5
:101EC0006060A80716D41EE040F60E0125EA010066
:101ED000606016E045F0400023464FF00A02606063
:101EE000A80707D40FE045F040006060A80708D5B8
:101EF000234610220D996FF00100AFF3008080E0BF
:101F000007E0102223460D996FF00100FEF758FC00
:101F100077E04FF0000963284F46C8464B46CB4652
:101F200002D05B2806D038E0E80601D40120A0608A
:101F3000012732E06269D4F80CB00B980121904778
:101F40005E2807D14FF0010949466269D4F80CB008
:101F50000B989047216939B900210B4603AA42F832
:101F60002130491C0829FADBD8B3216949B308F1AB
:101F7000010862690B98012190475D28F4D1B9F1FD
:101F8000000F09D0002003A951F82020D24341F8C6
:101F90002020401C0828F7DB03AB206900282079AB
:101FA0004FEA40701ED05B462246CDF80080CDE956
:101FB00001970D9900286FF0010020DAAFF300803F
:101FC0001FE0C11700EBD16203A9531122F01F02D9
:101FD00001EB8301821A0B680120904003430B60E0
:101FE000C7E719E00D99224600286FF0010000971D
:101FF00002DAAFF3008004E0FEF78AFC01E0AFF301
:10200000008000280ADA401C06D10C9820B14FF05D
:10201000FF300FB0BDE8F08F5046FAE7E90701D175
:102020000AF1010A064400200C9055E6CCCCCC0CF9
:102030002DE9F047814616468AB035487844D0E904
:10204000002380680092CDE90130314878440C3893
:10205000D0E90223006903924FF03702CDE9043042
:1020600041F69B30014491FBF2F0A0F1800502FBA8
:1020700010141B3C02D56442012000E00020DFF870
:1020800090A080460027FA44AAF1C60A0DE0E007B6
:1020900009D03246684607EB47010AEB810100F0A0
:1020A0001EFE8DE8070064107F1C002CEFD1184F36
:1020B0007F44B43F17E0E80713D007EB04100DF19D
:1020C000180A90E80E00AAE80E00C068F04201D19C
:1020D00098190890324606A903A800F000FE03AB49
:1020E00007C36D10641C002DE5D132466946B8F176
:1020F000000F03A802D000F0CAFD01E000F0EFFDE0
:10210000C9E90001C9F808200AB0BDE8F08700005D
:102110003484000000487047F41F00207546FFF724
:10212000F9FFAE4605006946534620F00700854694
:1021300018B020B5FEF7A6F8BDE820404FF0000625
:102140004FF000074FF000084FF0000B21F007019F
:10215000AC46ACE8C009ACE8C009ACE8C009ACE8E2
:10216000C0098D467047034640688C46002818BF5A
:10217000814284BF03464068F8D8186818448842F2
:1021800007D00CF1030020F00700001D411A521A7D
:102190000146081D0A60FFF7DDBC00002DE9FF4F76
:1021A0001F464FF03C0987B04FF00042DDE91410A4
:1021B00001F10108DDF858A002EA40500390002028
:1021C00004908346054604460590B969461E089862
:1021D0008847AAF1010A0290BAF1000F37DD029890
:1021E0002E2815D01021FFF774F900282ADB4FF0B4
:1021F000010B0499014316D0B9F1000F0BDB4A46DD
:10220000C11700F042FA05430C43A9F1040905E0A7
:102210000120059007E008B145F001050120049078
:10222000059800B9361DB969089808F10108884772
:10223000BBF1000FAAF1010A0290CDD00999C1F8B3
:102240000080C9E70298702808D0502806D0F969A4
:1022500008988847BBF1000F14D04FE0002002908F
:102260000120BBF1000F049009D0B969089808F16A
:1022700001088847AAF10109B9F1000F07DCF969E3
:10228000089888476FF001000BB0BDE8F08F2B284D
:1022900004D02D280CD14FF0FF300490B969089874
:1022A00008F101088847A9F10109B9F1000FE6DD3D
:1022B000411CE4D00A21FFF70CF90028DFDB02996A
:1022C00008F1010801EB810100EB41000290B969BE
:1022D000089888470A21FFF7FCF8099AA9F1010933
:1022E000B9F1000FC2F8008001DD0028E7DAF969D2
:1022F000089888470499029800FB016655EA040093
:1023000001D103989CE004F04041090004D1A400ED
:1023100044EA9574AD00B61E04F00041080002D1F5
:102320006D196441761E159810F0240F03D04FF0FC
:102330000B095C4803E04FF028096FF07D008246EE
:10234000564507DAAAEB06018944B9F1410F01DDD0
:102350004FF0410901200021A9F1010200F095F997
:10236000024628400B462140084301D0012100E0ED
:102370000021501E029143F1FF31284021400843C3
:1023800001D0012000E000200299834651EA0B01B0
:102390004FD0002108464FF00000039900F44000A0
:1023A00039B100EB80004FF4400100EBD07001EA3E
:1023B00060008015012802DD4FF0FF3000E013D0EF
:1023C000401C36D0029860B3BBF1000F0CD14A46D6
:1023D0000120002100F059F928402140084301D094
:1023E000012000E00020E0B101204A46002100F079
:1023F0004CF9034640190A4661412D1A8C4111D30C
:10240000B9F1400F09DD159810F0240F02D0AAF1A0
:10241000340603E0AAF1170600E0761C00254FF011
:10242000004406E05B1E42F1FF3220EA030521EA88
:102430000204CAF10100B04206DA1B4903980843BE
:102440000190002000900EE0039AC4F3D321E80A23
:102450000A43164940EA44500A433146CDE9000296
:10246000684602F0F9FA159810F0240F0BD0159871
:10247000C00715D13868DDE90012031D3B60006814
:10248000C0E900120CE002A8694602F0ECF91598C8
:10249000C00705D13868029A011D396000680260E2
:1024A0004046F1E602FCFFFF0000F07F0000F03F35
:1024B0002DE9FF4F92461D4685B04FF00041DDE902
:1024C000124BDDE914727F1E01EA4B50434940F084
:1024D000FF4940EA0108002122F020004928049128
:1024E00002D04E282BD04FE03DA00126D0E90012AB
:1024F00080680091CDE90120A9690698641C88478D
:102500007F1E014606D41DF8060018B121F02001F7
:1025100081420BD0E96906988847032E34D0082EF3
:1025200032D06FF0010009B0BDE8F08F761C032EA9
:1025300001D0082EE0D1601CCAF80000DCE7A969D0
:102540000698641C88477F1E2AD420F0200041286A
:1025500026D1A9690698641C88477F1E20D420F0E4
:1025600020004E281CD1A9690698641C88477F1E4C
:1025700048F4002849F48009CAF8004001D428280A
:1025800006D0E969069888475FEACB7012D022E04E
:10259000A9690698641C88477F1E01D4002803DAC5
:1025A000E96906988847BCE72928F1D1641CCAF874
:1025B0000040E9E71BF0240F07D028680499031DA9
:1025C0002B600068C0E9001805E02868021D2A6039
:1025D0000068C0F800902046A5E700000000F07FEA
:1025E000494E46494E495459000000000446AFF395
:1025F00000802046FDF724FE10B500F05FF8BDE82E
:10260000104000F055B800004FF0013C50F8042B8A
:1026100051F8043B9A4221D1A2EB0C03934313EAF5
:10262000CC1317D150F8042B51F8043B9A4215D122
:10263000A2EB0C03934313EACC130BD150F8042BF9
:1026400051F8043B9A4209D1A2EB0C03934313EADD
:10265000CC13DBD04FF00000704700BFD01A01BA96
:10266000B1FA81F101F0180122FA01F0CB40C1F179
:102670002001DBB2C0B2C01A2CFA01F3D11A914387
:1026800011EAC311E6D170477047B2F120030AD5B1
:10269000C2F1200301FA02F120FA03F300FA02F07A
:1026A00041EA0301704700FA03F14FF00000704760
:1026B000002801D000F02AB87047000010B50128AA
:1026C00005D0002103A000F027F8012010BD09A1CA
:1026D000F8E7000053494752544D454D3A204F7595
:1026E00074206F662068656170206D656D6F72790A
:1026F000000000003A2048656170206D656D6F72C2
:102700007920636F727275707465640001491820D6
:10271000ABBEFEE72600020070B505460C460A2057
:1027200000E06D1C00F011F835B128780028F8D1D0
:1027300002E0641C00F009F814B120780028F8D1F8
:10274000BDE870400A20AFF3008008B569468DF8F7
:1027500000000320ABBE08BD5FEA400C08BF91F04B
:10276000000F4FEA8C234FEAC12243EA51514FEA4E
:102770001C5018BF00F5F0404FEA300018BF41F080
:1027800000415FEA6C5C00F02980BCF1FF3F08BFAC
:1027900040F080407047130C06BF12044FF0100C3D
:1027A0004FF0000C130E04BF12020CF1080C130FB3
:1027B00004BF12010CF1040C930F04BF92000CF142
:1027C000020CD30F04BF52000CF1010C11464FF064
:1027D0000002A0F11F00A0EB0C00704711F0004FA9
:1027E00008BF704731F000413FF4D5AF0B0C06BF76
:1027F00009044FF0100C4FF0000C0B0E04BF09023F
:102800000CF1080C0B0F04BF09010CF1040C8B0F29
:1028100004BF89000CF1020CCB0F04BF49000CF17E
:10282000010CCCF12003A0EB0C0022FA03F302FA16
:102830000CF241EA030100F10100704720F07F4CE7
:1028400080EA030023F07F47ACEB070303F57C53DA
:1028500000F0004003F1FF032DE980494FEA154BDA
:1028600009B44FEA144325EA0B4E24EA03480FF259
:10287000042606EB132749083E785FEA320203FB81
:102880000667C7F5000707FB06F64FEA54374FEA1D
:10289000D64606F1020607FB066CCCF1005C4FEA57
:1028A0001C472CEA074C07FB06F40CFB06F504EB6F
:1028B00015464FEA961634BF00204FF000404FEA0D
:1028C000D13706FB07FC4FEA1C4C0CFB0BF7D21B65
:1028D00003FB0CF761EB07010CFB0EF7B0EB0740B5
:1028E00072EB17420CFB08F734BFA2EB0742B2EBC6
:1028F000074261EB17414FEA0C444FEA910706FB90
:1029000007FC4FEA1C4C0CFB0BF7B0EBC74072EB1B
:10291000573203FB0CF734BFA2EBC742B2EBC742FE
:1029200061EB57310CFB0EF7B0EBC70072EB57723F
:102930000CFB08F734BFA2EBC702B2EBC70261EB96
:102940005771039F4FEA816141EA921104EBCC0475
:102950004FEAD1374FEA826206FB07FC42EA901247
:102960004FEA80604FEA1C4C0CFB0BF7D21B03FBB9
:102970000CF761EB07010CFB0EF7B0EB074072EBB5
:1029800017420CFB08F734BFA2EB0742B2EB074239
:1029900061EB17414FEA8C554FEA910704EB9C24F9
:1029A00006FB07FC4FEA1C4C0CFB0BF7B0EBC740D7
:1029B00072EB573203FB0CF734BFA2EBC742B2EB0A
:1029C000C74261EB57310CFB0EF7B0EBC70072EB5F
:1029D00057720CFB08F734BFA2EBC702B2EBC70279
:1029E00061EB577115EB4C254FEA816141EA921179
:1029F0004FEA82624FEAD13742EA901206FB07FCA7
:102A000044F100044FEA80604FEA1C4C0CFB0BF7CA
:102A1000D21B03FB0CF761EB07010CFB0EF7B0EBCD
:102A2000074072EB17420CFB08F734BFA2EB0742DA
:102A3000B2EB074261EB174115EB1C154FEA8131F0
:102A400041EA92414FEA823242EA90424FEA8030B4
:102A50004FEA0C7644F1000448EA03434EEA0B487F
:102A60004FF0000EB2EB080C71EB030724BF624677
:102A700039464EEB0E0E4FF0000B00185241494103
:102A80004BEB0B0BB2EB080C71EB03077BF1000B6C
:102A900024BF624639464EEB0E0E4FF0000B001875
:102AA000524149414BEB0B0BB2EB080C71EB0307A6
:102AB0007BF1000B24BF624639464EEB0E0E51EA05
:102AC000020718BF46F0010616EB0E7655F100021C
:102AD00054F1000103D5BDE88901BDE80088BDE8D7
:102AE0008901BDE80048B619524141EB0101A3F14B
:102AF0000103704780807F7E7D7C7B7A7978777652
:102B000076757473727171706F6E6E6D6C6C6B6ACA
:102B10006A69686867666665646463636261616068
:102B2000605F5F5E5E5D5D5C5C5B5B5A5A595958E5
:102B3000585757565655555554545353525252514F
:102B4000515050504F4F4F4E4E4D4D4D4C4C4C4BA5
:102B50004B4B4A4A4A4949494848484747474746EC
:102B60004646454545444444444343434342424228
:102B70004241414146EA0646A3F570534FEA1646E4
:102B800046EA42564FEAD22242EA415210B54FEA93
:102B9000D121A3F1010300F017F820F0004000F16B
:102BA000010C00F0004701EB00501146BCF5006F2E
:102BB00040EA070000D210BD02484FF0000140EA91
:102BC000070010BD0000F07F002B26D4770021D035
:102BD0001CB54FEA370703B44FF010004FF0100157
:102BE0004FF000000FBCBDE810400BF1010BBBF132
:102BF000010F08BF5FEA170722BF12F1010211F1AE
:102C000001014FF0004143F1000300F0004043EAAE
:102C100000007047F9D35708DAE746EA064613F191
:102C2000400F4FEA16461FDD13F1200FDFBF16439A
:102C30000A46002120335B42C8D0C3F1200746EA90
:102C4000064602FA07F74FEA164646EA0706C3F1B8
:102C5000200722FA03F201FA07F721FA03F14FF0F5
:102C6000000342EA0702B1E746EA020646EA0646E0
:102C70004FEA164646EA0106BCBF46EA0646360C4F
:102C80004FF000034FF000024FF000019EE72DE9E6
:102C9000C048934630B491E8380007C831EA400C88
:102CA00048BF34EA430C03D5FFF7C8FDFFF78CFF9C
:102CB000F0BCBDE800882DE9C048934630B491E8E7
:102CC000380007C831EA400C48BF34EA430C03D54A
:102CD000FFF7B4FDFFF74EFFF0BCBDE800882DE91B
:102CE000C048934630B491E8380007C810F0804FD0
:102CF00008BF13F0804F03D100F019F8FFF764FF0D
:102D0000F0BCBDE800882DE9C048934630B491E896
:102D1000380007C810F0804F08BF13F0804F03D170
:102D200000F005F8FFF726FFF0BCBDE8008820F0B2
:102D30007F4780EA030023F07F4C07EB0C03A3F5E9
:102D40007C5300F00040A3F1FE0392F0000F00F06E
:102D5000B38095F0000F00F077802DE901494FEA2C
:102D600011404FEA144621EA004800FB06FC24EA21
:102D7000064708FB06F607FB08F800FB07F718EB09
:102D800006484CEB164C4FEA124B18EB07484FEA3B
:102D900015464CEB174022EA0B4E0BFB06FC25EACE
:102DA00006470EFB06F607FB0EFE0BFB07F71EEBB6
:102DB000064E4CEB164C4FF000061EEB074E4CEB4C
:102DC000174B18EB0B0840F1000018EB0E0B58EBFB
:102DD000000840F100008F1A4FF000013CBFC943CA
:102DE000661B14BFB5EB040C00213CBFC943F61BA6
:102DF0004FEA17444EEA8E0E27EA04454FEA1C4775
:102E000004FB07622CEA074C05FB07F70CFB05F6F1
:102E100004FB0CFC16EB074642EB174216EB0C4684
:102E200042EB1C421BEB060658EB0202414146EA0C
:102E30009E0601D5BDE80189B619524141EB010159
:102E4000A3F10103BDE801894FEA14454FEA114798
:102E500024EA054621EA074C05FB07F406FB07F7C1
:102E60000CFB06F105FB0CFC11EB074144EB17448E
:102E70004FEA124711EB0C4144EB1C4422EA074C89
:102E800005FB07F206FB07F70CFB06F605FB0CFC3F
:102E900016EB074642EB174216EB0C4642EB1C457D
:102EA0006A1854F1000148BF7047B619524141EB0E
:102EB0000101A3F10103704795F0000F37D04FEAED
:102EC00011424FEA144721EA024624EA074C02FB6A
:102ED00007F106FB07F70CFB06F402FB0CFC14EBF6
:102EE000074441EB17414FEA154714EB0C4441EB03
:102EF0001C4125EA074C02FB07F506FB07F70CFB14
:102F000006F602FB0CFC16EB074645EB174516EBE5
:102F10000C4645EB1C42121951F1000148BF7047A5
:102F2000B619524141EB0101A3F1010370474FEA89
:102F300014454FEA114724EA054621EA074C05FBF0
:102F400007F106FB07F70CFB06F24FF0000605FB46
:102F50000CFC12EB074241EB174112EB0C4251EB18
:102F60001C4148BF7047921841EB0101A3F10103D6
:102F7000704721B1826842F00102826003E08268FA
:102F800022F001028260704721B1826842F48072AF
:102F9000826003E0826822F480728260704721B10F
:102FA000826842F48012826003E0826822F4801218
:102FB0008260704721B1826842F40042826003E07F
:102FC000826822F40042826070470A4600218168CC
:102FD00021F4E041114381607047014600208A6876
:102FE00012F0040F01D0012000E0002070470146DC
:102FF00000208A6812F0080F01D0012000E00020B4
:103000007047000030B502460020002350680F4C86
:1030100020400D790C6844EA0524204350609068F4
:103020000B4C2040D1E902542C434D7944EA45042D
:1030300020439060D06A20F470000C7C641EE4B2DF
:10304000234340EA0350D06230BD0000FFFEF0FF92
:10305000FDF7F1FFF0B504461546002000220026DA
:10306000092911DDE068A1F10A0707EB470C0727E2
:1030700007FA0CF29043A1F10A0707EB470703FA9E
:1030800007F21043E0600CE0206901EB410C0727D8
:1030900007FA0CF2904301EB410703FA07F21043E1
:1030A0002061A06BC0F30156EF1C06F1010CA7EBE9
:1030B0000C0707EB870C1F2707FA0CF29043EF1C55
:1030C00006F1010CA7EB0C0707EB870701FA07F2E3
:1030D0001043A063F0BD10B50A4600210023816BA8
:1030E00021F44011531E41EA0351816310BDF0B534
:1030F00004460D4600200021092D11DDE068A5F1F0
:103100000A0606EB4607072606FA07F18843A5F1EB
:103110000A0606EB460603FA06F10843E0600CE0F7
:10312000206905EB4507072606FA07F1884305EBFA
:10313000450603FA06F108432061072A0FDA606B9F
:10314000561E06EB86071F2606FA07F18843561E11
:1031500006EB860605FA06F10843606322E00D2AB5
:103160000FDA206BD61F06EB86071F2606FA07F13B
:103170008843D61F06EB860605FA06F1084320634E
:1031800010E0E06AA2F10D0606EB86071F2606FA9C
:1031900007F18843A2F10D0606EB860605FA06F153
:1031A0000843E062F0BD816841F00801816070472A
:1031B00021B1826842F4A002826003E0826822F4B6
:1031C000A00282607047816841F00401816070470D
:1031D00000200949C866C867084908604FF4000024
:1031E000074908604FF48030064908604FF400300A
:1031F000086000BFFEE70000008021428C80214271
:1032000010080140100C014029B1064A52680243DF
:10321000044B5A6004E0034A52688243014B5A60EF
:1032200070470000002004E02DE9F05F8A4C72B680
:1032300006F0AEF8054662B688480168884F8907EF
:103240000BD510342188A28811443A6BA2EBC1310E
:103250003A6BA2EBA111396309E02188A2881144DD
:10326000BA6AA2EBC131BA6AA2EBA111B962072115
:1032700041607C480078032874D0DFF8EC91D9F8DD
:10328000000070B1D9F80000854203D3D9F80000DE
:10329000281A03E0D9F80000C0432844B9688842DE
:1032A00060D96088E188DFF8B0810144B7F9140083
:1032B00008F1200828F810102289A38908F1800657
:1032C0001A4426F810206389E48906F1800C23440F
:1032D0002CF81030B7F91640401C90FBF4FA04FBB0
:1032E0001A0000B2B88238F81080A1EB0801D7F8B4
:1032F00018804144B96136F81060921BFE6932446F
:10330000FA613CF81000181A3B6A184438628B18AE
:103310001E18B6FBF4F45A2C24D9544C2678002EEF
:1033200020D02478022C1DD0BC6BA54202D3BC6BEC
:103330002E1B02E0BC6BE44366197C6CA64211D9DB
:10334000002497F834A04FF0010CA046BAF1000F0A
:1033500009D102EB000BB1EB5B0F04D387F834C04B
:1033600006243AE075E0BAF1000F08D002EB000A3B
:10337000B1EB5A0F03D887F8348003242DE097F877
:1033800035A0BAF1000F08D101EB000BB2EB5B0FD7
:1033900003D387F835C004241FE0BAF1000F0BD027
:1033A0000144B2EB510F07D887F83580012430482B
:1033B000006803F0B6FB10E097F8361031B9B0EBB7
:1033C000530F03D387F836C0022406E029B1B0EBCF
:1033D000530F02D887F836800524002C39D038697D
:1033E000864236DDF868864200DD0646386C396C68
:1033F000C0EBC63001EBE0003864386CC013F863F2
:103400001C480470C9F80080F86BB7F90410B0FBD1
:10341000F1F1B7F91600801C00EB800202EBC0004E
:1034200000EBD070FA6B4010C0EB5200FA6B401A00
:10343000114906F027F8BD6301F082FBF86B00EB41
:10344000400080087864B86AF96A884201DDB86A89
:10345000F862BDE8F09F0000CC03002000000240AD
:1034600028000020BB0300202C030020580300206C
:10347000480300201C030020AD6B000810B54FF47A
:10348000005000F011F80021054800F01BF8054835
:1034900001684068814201D005F010FE10BD0000B7
:1034A00044000240C81E002010F0805F02D0034993
:1034B000086001E0024948607047000004040240CF
:1034C0000000024021B1026842F00102026004E003
:1034D00002684FF6FE731A400260704701684FF6AB
:1034E000FE72114001600021016041608160C16095
:1034F0004B49884208D14A490839496841F00F01CF
:10350000474A083A51608AE045491431884208D157
:1035100043490839496841F0F001414A083A51608D
:103520007DE03F492831884208D13D490839496842
:1035300041F470613A4A083A516070E038493C31D0
:10354000884208D136490839496841F47041344A03
:10355000083A516063E032495031884208D130491D
:103560000839496841F470212D4A083A516056E003
:103570002B496431884208D129490839496841F406
:103580007001274A083A516049E02549783188425C
:1035900008D123490839496841F07061204A083A46
:1035A00051603CE01F49884206D1011F096841F083
:1035B0000F01021F116032E01A491431884208D10C
:1035C0001849091F096841F0F001164A121F1160DD
:1035D00025E014492831884208D11249091F096899
:1035E00041F470610F4A121F116018E00D493C311F
:1035F000884208D10B49091F096841F47041094A02
:10360000121F11600BE007495031884207D105496C
:10361000091F096841F47021024A121F11607047A6
:1036200008000240080402400146486880B2704722
:103630001AB103680B43036002E003688B43036025
:10364000704710B50022026847F6F0739A430C6A7F
:103650008B6823430C6923434C6923438C692343C0
:10366000CC6923434C6A23438C6A23431A43026088
:10367000CB6843600B6883604B68C36010BD00007B
:103680000149086070470000140401400146002011
:103690000022074B1B6803EA0102054B14331B6829
:1036A0000B4202D00AB1012000E000207047000068
:1036B00000040140002123498279002A3AD00A46B9
:1036C000126803689A430B461A600A1D1268036861
:1036D0009A430B1D1A60027911440A6803681A4361
:1036E0000A60184A0832126803689A43154B083377
:1036F0001A601A1D126803689A43124B0C331A6041
:103700004279102A0ED11A1F126803681A430D4B12
:1037100008331A601A1D126803681A43094B0C33E8
:103720001A600DE00749427911440A6803681A4398
:103730000A6005E0027911440A6803689A430A6046
:1037400070470000000401400149C8607047000054
:103750000020024030B5044604254FF4302000F02C
:1037600085F80546042D17D10C48006940F0020089
:103770000A49086108464461006940F04000086158
:103780004FF4302000F072F805460448006941F615
:10379000FD71084001490861284630BD0020024003
:1037A00004200B49C96811F0010F01D001200EE07F
:1037B0000749C96811F0040F01D0022007E004494D
:1037C000C96811F0100F01D0032000E004207047F9
:1037D000002002400348006940F080000149086170
:1037E000704700000020024078B506460C460425CC
:1037F00000200090E80200F039F80546042D24D19D
:103800001348006940F00100114908613480E80262
:1038100000F02CF80546042D10D1B01C0090200CAF
:1038200000990880E80200F021F805460848006980
:1038300041F6FE7108400649086106E00448006947
:1038400041F6FE71084002490861284678BD000033
:10385000002002400248034948600348486070471E
:103860002301674500200240AB89EFCD00B5024639
:103870000423FFF795FF034603E0FFF791FF03469C
:10388000521E012B01D1002AF7D102B90523184697
:1038900000BD2DE9F041024600250026002000234E
:1038A0000024002791F803C00CF00F0591F803C025
:1038B0001CF0100F03D091F802C04CEA050591F8F6
:1038C00000C0BCF1000F31D0146800202BE04FF095
:1038D000010C0CFA00F3B1F800C00CEA03069E429A
:1038E00020D183004FF00F0C0CFA03F7BC4305FA0C
:1038F00003FC4CEA040491F803C0BCF1280F06D184
:103900004FF0010C0CFA00FCC2F814C00AE091F868
:1039100003C0BCF1480F05D14FF0010C0CFA00FCBC
:10392000C2F810C0401C0828D1D31460B1F800C000
:10393000BCF1FF0F34DD546800202EE000F1080CCC
:103940004FF0010808FA0CF3B1F800C00CEA0306C6
:103950009E4221D183004FF00F0C0CFA03F7BC43B9
:1039600005FA03FC4CEA040491F803C0BCF1280FEB
:1039700005D100F1080C08FA0CF8C2F8148091F88F
:1039800003C0BCF1480F07D100F1080C4FF001084B
:1039900008FA0CF8C2F81080401C0828CED35460F6
:1039A000BDE8F081F0B50A4600230024002100257F
:1039B00000F00046B6F1004F02D11D4EF16901E062
:1039C0001B4E7168C0F3034583B200F44016B6F590
:1039D000401F08D121F07061154E766826F07066A0
:1039E000134F7E6012E000F48016B6F5801F06D1FA
:1039F000032606FA05F4A14341F0706106E0460D86
:103A0000360103FA06F6B14341F0706122B1460D6A
:103A1000360103FA06F6314300F00046B6F1004FD6
:103A200002D1034EF16101E0014E7160F0BD000072
:103A30000000014000200949C866C86708490860BD
:103A40004FF40000074908604FF4803006490860D1
:103A50004FF40030086000BFFEE700000080214204
:103A60008C80214210080140100C014000200949BF
:103A7000C866C867084908604FF400000749086035
:103A80004FF48030064908604FF40030086000BFF2
:103A9000FEE70000008021428C8021421008014096
:103AA000100C014070B5002100230F22C4780CB324
:103AB000164C246804F4E064C4F5E064210AC1F102
:103AC0000403CA40447804FA03F184781440214383
:103AD00009010F4C0678A155047804F01F05012454
:103AE000AC4005786D114FF0E02606EB8505C5F872
:103AF000004109E0047804F01F050124AC40054DA5
:103B00000678761145F8264070BD00000CED00E007
:103B100000E400E080E100E010B5002807DA0A07C1
:103B2000140E054A00F00F031B1FD45403E00A07CC
:103B3000130E024A135410BD18ED00E000E400E03B
:103B400010B54FF48030FFF7A1FDA0B1042004F0C0
:103B50008FFC09480068808807490968096848613E
:103B600006480068808805490968096848614FF47B
:103B70008030FFF785FD10BD440300204003002086
:103B8000014908617047000000000E420146002014
:103B9000034A106820F0E0000843106070470000FE
:103BA0000070004001460020034A506820F4404065
:103BB00008435060704700000010024029B1064AD7
:103BC00052690243044B5A6104E0034A526982433A
:103BD000014B5A61704700000010024029B1064AAB
:103BE000D2690243044BDA6104E0034AD26982439A
:103BF000014BDA61704700000010024029B1064A0B
:103C000092690243044B9A6104E0034A9269824339
:103C1000014B9A6170470000001002400348406A5F
:103C200040F0807001494862704700000010024077
:103C300030B500210022002400232D4D6D6805F0D1
:103C40000C0121B1042905D0082923D105E0294D13
:103C5000056022E0274D05601FE0254D6D6805F4E5
:103C60007012234D6D6805F48034022505EB9242F5
:103C70001CB9214D554305600BE01D4D6D6815F4D1
:103C8000003F03D01C4D5543056002E0194D5543DC
:103C9000056002E0174D056000BF00BF144D6D6860
:103CA00005F0F0010909154D6B5C0568DD404560C4
:103CB0000F4D6D6805F4E061090A104D6B5C4568B5
:103CC000DD4085600A4D6D6805F46051C90A0B4DF1
:103CD0006B5C4568DD40C560054D6D6805F440418D
:103CE000890B074D6B5CC568B5FBF3F5056130BD0D
:103CF0000010024000127A0000093D000000002080
:103D00001000002010B501460022002300204A11B7
:103D1000012A02D1094C236806E0022A02D1074C8D
:103D2000236A01E0054C636A01F01F0201249440FC
:103D30001C4201D0012000E0002010BD0010024014
:103D400001490860704700000000424210B500F0D1
:103D500001F810BD0CB500200190009032480068B9
:103D600040F480303049086000BF2F48006800F4FC
:103D7000003000900198401C0190009818B90198FB
:103D8000B0F5A06FF1D12848006810F4003F02D0D0
:103D90000120009001E0002000900098012842D10D
:103DA0002248006840F0100020490860084600687A
:103DB00020F0030008600846006840F00200086038
:103DC00019484068184948600846406848600846F5
:103DD000406840F4806048600846406820F47C10E9
:103DE00048600846406840F4E810486008460068AB
:103DF00040F08070086000BF0B48006810F0007F42
:103E0000FAD00948406820F0030007494860084696
:103E1000406840F00200486000BF0348406800F07E
:103E20000C000828F9D10CBD00100240002002400F
:103E30002DE9F04104F074FB3548006805F0DEFE22
:103E40000446344905F03AFF3349086033490968AC
:103E5000334A1268881A05F0D1FE044631480168D9
:103E6000204605F02BFF30490860304909682C4A8C
:103E70001268881A05F0C2FE04462A4801682046E6
:103E800005F01CFF2A4908602A480078032802D15F
:103E900003F066FA07E004F04FFF04F0B7FC264891
:103EA000006804F0B3FE2548006805F0BFFE064632
:103EB0002348006805F0BAFE074622490968224AED
:103EC0001268881A05F0B2FE8046204905F0F6FE19
:103ED0000546394605F0F2FE0446314605F05CFD24
:103EE0001B490860174800681749086000201349FB
:103EF00008601848007810B901F04AFC01E001F0B0
:103F0000CDF815480068401C13490860BDE8F081F1
:103F1000580000209C65CA33A003002050000020F8
:103F20004C000020280000209803002054000020AE
:103F30009C030020BB030020180300205403002032
:103F40004C03002050030020900300200000C842D2
:103F500094030020B90300208C03002010B51348FF
:103F6000006840F0010011490860084640681049A7
:103F700008400E494860084600680E4908400B4951
:103F800008600846006820F4802008600846406801
:103F900020F4FE0048604FF41F008860FFF7D6FE53
:103FA0004FF000600449086010BD0000001002409E
:103FB0000000FFF8FFFFF6FE08ED00E0F0B50C464C
:103FC000154600220021068C4FF6FE773E400684FF
:103FD000028B018C4FF60C7632407E1C06EA0316EB
:103FE0002E433243104EB0420ED0104EB0420BD092
:103FF000B0F1804F08D00E4EB04205D00D4EB04209
:1040000002D00D4EB04206D14FF6FD76314044F05D
:104010000106314305E04FF6F576314044F00106E4
:10402000314302830184F0BD002C01400034014083
:104030000004004000080040000C0040F0B50C46B1
:104040001546002200210026078C4FF6EF7C07EA78
:104050000C070784028B018C4FF6FF7707EA0416E2
:1040600040F6FF473A404FF6FF7707EA03373A43F7
:104070004FF6FF7707EA05273A43114FB8420ED0B3
:10408000104FB8420BD0B0F1804F08D00E4FB8425D
:1040900005D00E4FB84202D00D4FB84206D14FF6B0
:1040A000DF77394046F01007394305E04FF65F7778
:1040B000394044F01007394302830184F0BD000009
:1040C000002C014000340140000400400008004082
:1040D000000C004070B521480088012121EA9006BB
:1040E0001E4824300588001D04881D48007860B9EA
:1040F000012E0AD1281BB0F5F07F06DD281BB0F594
:10410000117F02DA03F07EFE26E016480078E0B95F
:104110001548B0F90000854217DB1448B0F90000DB
:10412000854212DC1248B0F9000084420DDB1148D0
:10413000B0F90000844208DC76B90F4800680F49E6
:104140000860204604F026FA06E0064800780428B5
:1041500002D1304603F08EFC70BD0000102C0140EF
:104160005803002059030020700300207203002030
:104170007403002076030020C80300208003002081
:1041800010B50221480700F05CF878B14FF6FD70D9
:1041900081070882800780894FF6FD7108408907F2
:1041A0008881194A5068116888472CE00421080763
:1041B00000F047F888B14FF6FB704FF0804108825D
:1041C000084680894FF6FB7108404FF08041888196
:1041D0000D4AD0689168884715E00821C80600F0AC
:1041E00030F880B14FF6F7704FF0804108820846F2
:1041F00080894FF6F77108404FF080418881024A6C
:1042000050691169884710BDDC1F002021B1028868
:1042100042F08002028004E002884FF67F731A4069
:1042200002807047CA430282704721B1028842F07F
:104230000102028004E002884FF6FE731A400280F9
:10424000704730B50246002000230024158A05EA95
:104250000103958905EA010413B10CB1012000E0C6
:10426000002030BD70B5002400220023058C4FF6DD
:10427000FE7635400584028C8388048B4FF68F755B
:104280002C40B51E2C400D882C43751E2A400D89EC
:104290002A434D882A43144DA8420BD0134DA842FF
:1042A00008D0134DA84205D0124DA84202D0124D9D
:1042B000A84213D14FF6F7752A404D892A434FF68D
:1042C000FB752A408D882A434FF6FF652B404FF639
:1042D000FF552B408D892B43CD892B43838004834D
:1042E000CD888586028470BD002C014000340140D9
:1042F0000040014000440140004801400A460021BE
:10430000018B4FF6F773194011430183704700008A
:1043100070B5002400220023058C4FF6EF7635405F
:104320000584028C8388048B48F6FF752C404FF679
:10433000FF452C400D884FF6FF7606EA05252C43F5
:104340004FF6DF752A400D8906EA05152A434D8888
:1043500006EA05152A43154DA84202D0144DA8427D
:104360001DD14FF67F752A404D894FF6FF7606EA3C
:1043700005152A434FF6BF752A408D8806EA0515B4
:104380002A434FF6FF352B404FF2FF752B408D89A6
:1043900006EA85052B43CD8906EA85052B438380F4
:1043A0000483CD880587028470BD0000002C014085
:1043B000003401400A460021018B4FF2FF7319407F
:1043C0004FF6FF7303EA022319430183704700008D
:1043D00070B5002400220023058C4FF6FF6635409F
:1043E0000584028C8388848B4FF68F752C404FF6A2
:1043F000FC752C400D882C434FF6FF552A400D8943
:104400004FF6FF7606EA05252A434D8806EA05257C
:104410002A43154DA84202D0144DA8421DD14FF297
:10442000FF752A404D894FF6FF7606EA05252A4397
:104430004FF6FF352A408D8806EA05252A434EF6B9
:10444000FF752B404DF6FF752B408D8906EA05154B
:104450002B43CD8906EA05152B4383808483CD88C1
:104460008587028470BD0000002C014000340140AB
:104470000A460021818B4FF6F7731940114381835F
:104480007047000070B5002200230024058C4EF612
:10449000FF7635400584038C8488828B48F6FF754F
:1044A0002A404FF6FF452A400D884FF6FF7606EA70
:1044B00005252A434DF6FF752B400D8906EA053583
:1044C0002B434D8806EA05352B430B4DA84202D0FD
:1044D0000A4DA84208D14BF6FF752C408D894FF646
:1044E000FF7606EA85152C4384808283CD88A0F868
:1044F0004050038470BD0000002C01400034014096
:104500000A460021818B4FF2FF7319404FF6FF736B
:1045100003EA02231943818370470021018041800F
:104520008180C180018141818181C18170472DE9F4
:10453000F04105460C4600260127608808B902268E
:1045400000E00026A088012801D1022700E0012711
:104550002088A0B92389A28861882846FFF72EFD0C
:10456000E188284600F03CF823893A46314628463F
:10457000FFF764FDE188284600F03BF813E023894B
:10458000A28861882846FFF759FDE188284600F097
:1045900030F823893A4631462846FFF70FFDE18877
:1045A000284600F01DF8BDE8F0810A460021018987
:1045B0004FF68F73194011430181704702894FF6FE
:1045C0007F731A40028102890A430281704702897F
:1045D0004FF6F8731A40028102890A43028170473C
:1045E000028B4FF6F3731A400283028B0A43028355
:1045F0007047028B4FF2FF331A400283028B4FF653
:10460000FF7303EA01231A430283704700220288E2
:104610001D4B98420ED01D4B98420BD0B0F1804FED
:1046200008D01B4B984205D01A4B984202D01A4B27
:10463000984204D14FF68F731A404B881A43174B98
:10464000984207D0164B984204D04FF6FF431A40C9
:10465000CB881A4302808B8883850B8803850A4B9D
:1046600098420BD0094B984208D00E4B984205D087
:104670000D4B984202D00D4B984201D10B7A038624
:104680000123838270470000002C01400034014068
:104690000004004000080040000C004000100040F2
:1046A0000014004000400140004401400048014027
:1046B0004FF6FF71818000210180C180418001722D
:1046C000704721B1828942F40052828104E08289DC
:1046D0004DF6FF731A40828170471AB1838A0B43EB
:1046E000838202E0838A8B43838270472DE9F047FF
:1046F00086B005460E460024A24600BFA14600270C
:10470000B08900B100BF2F462C8A4CF6FF700440E0
:10471000F08804432C82AC894EF6F3100440B08834
:1047200031890843718908430443AC81AC8A4FF650
:10473000FF400440B0890443AC8201A8FFF778FA37
:104740001F48874202D1DDF810A001E0DDF80CA07F
:10475000A88910F4004F08D00AEBCA0000EB0A1039
:1047600031684900B0FBF1F807E00AEBCA0000EB42
:104770000A1031688900B0FBF1F86420B8FBF0F052
:1047800004012009642101FB1089A88910F4004F5D
:1047900008D0322000EBC900B0FBF1F000F00700B8
:1047A000044308E0322000EB09106421B0FBF1F073
:1047B00000F00F0004432C8106B0BDE8F087000034
:1047C0000038014000200949C866C86708490860E8
:1047D0004FF40000074908604FF480300649086034
:1047E0004FF40030086000BFFEE700000080214267
:1047F0008C80214210080140100C0140490050EA11
:10480000C12018BF04204A0D18BF40F0010040F23B
:10481000FF72B2EB515F08BF40F00200012808BFF1
:10482000052070474100080218BF04200A0E18BF77
:1048300040F001004FF07F4232EA010108BF40F032
:104840000200012808BF052070470000024A00202E
:10485000110705F09EBC000001FDFFFF6FF05E0137
:10486000080705F0C4BC10B50446D1E9000100F00A
:10487000AFF8206010BD00002DE9F04D0E46144643
:104880004FF07F41B1EB440F9EBF4FF0FF313160DD
:10489000BDE8F08D4FF0004040EA0421C4F3C7505A
:1048A0007838431100F01F00DFF814C1C0F1200276
:1048B000FC445CF823500CEB83038540D3F804C020
:1048C0002CFA02F72F439D680CFA00FC25FA02F837
:1048D000DB6805FA00F023FA02F240EA02054CEA2E
:1048E000080CA7FB0132ACFB01C0A5FB015101EB99
:1048F0000C058D4234BF4FF0010C4FF0000CC11875
:104900006144BCF1000F02D0814202D903E0814230
:1049100001D2012000E00020104400F120024FEA03
:1049200092188006CA0C40EA42304F03C6F8008055
:1049300005F064F98246384605F078F96FF0120107
:1049400005F055FC0746284605F070F96FF0250183
:1049500005F04DFC83463946504604F0A9FF594600
:1049600004F0A6FF00F500656FF30B0551462846DD
:1049700005F064FB394605F061FB594605F0CCFAB9
:10498000104905F09BF907460F49284605F096F9AE
:10499000394604F08DFF07460C49284605F08EF98C
:1049A000394604F085FF14F0004F08BFBDE8F08DD4
:1049B000C8F1805180F000403160BDE8F08D00000A
:1049C000245B0000DB0FC92F22AAFD290000C92F9C
:1049D00038B504460D466A4602F0D0FD00987E3098
:1049E000009000281FDC002213462046294604F0D0
:1049F00031FE18D02046294604F0E6FD0446002189
:104A000040F608004FF0000040F60801014040F673
:104A100008004FF0000034F0004004BF0220FCF713
:104A200010F9204638BD0098FF280DDB0220FCF766
:104A300008F9002213462046294604F0D7FE8CBF11
:104A400004484FF0FF4038BD20462946BDE83840B5
:104A500004F0BABD000080FF10B504460A46D4E950
:104A60000003194602F0B9FDC4E9000110BD0000C1
:104A700001460846124A127802B90020114B1880EC
:104A80001B1D18801B1D18800F4A1278B2B10F4BE6
:104A90001A68D31702EB537301EBE300002801DA25
:104AA000002005E0094A1268904201DD074A1068BB
:104AB000074B18801B1D18801B1D188070470000B5
:104AC0005803002034080040300300201003002069
:104AD0003804004001880A4A11804188121D118063
:104AE0008188121D118001881231064A1180418887
:104AF0001231121D118081881231121D11807047F0
:104B0000340800403804004030380A2801D201201F
:104B100070470020704710B504462046FEF743FB5F
:104B200000BF2046FEF763FA0028FAD12046FEF7C0
:104B30004AFB00BF2046FEF750FA0028FAD110BD0C
:104B400010B50E480068800904B20D48B0F90000A5
:104B5000401C844207DD0A48B0F90000402802DA10
:104B600000F010F809E00648B0F90000401EA0422D
:104B700003DD012C01DD00F027FA10BD64000020E8
:104B80003E000020224A2149B2F9002031F81210DB
:104B9000204A126811441F4A11601D4A1E49B2F989
:104BA000002031F812101D4A126811441B4A11608E
:104BB000174A1B49B2F9002031F81210194A12683D
:104BC0001144184A11601849B1F9000012E00F4A67
:104BD000411E32F8111022F810100F4A411E32F80F
:104BE000111022F810100E4A411E32F8111022F84E
:104BF0001010401E0649B1F900108842E7DC0A494E
:104C0000094A0988491C09B211807047EC03002049
:104C10003C000020400000206C04002044000020E4
:104C2000EC040020480000203E00002000B591B0B8
:104C300000F028F98C49402008808C48FEF74EFC93
:104C40008B4801908B48029008200490002003902C
:104C5000059080200690800007908000089020201A
:104C600009904FF440500A9000200B9001A97F4812
:104C7000FEF7E7FC012206217C48FEF7D9FC07205D
:104C8000FEF712FC01217948FEF71CFC0B208DF881
:104C9000000002208DF8010000208DF802000120A4
:104CA0008DF803006846FEF7FDFE4FF480300C904F
:104CB00001208DF834008DF835004FF460200E90FF
:104CC00000200F9008208DF8400069480CA94C384E
:104CD000FEF798F9664801231A4605214C38FEF77D
:104CE00006FA63480123022205214C38FEF7FFF93A
:104CF0005F480123032202214C38FEF7F8F95C4893
:104D00000123042202214C38FEF7F1F9584801230F
:104D1000052204214C38FEF7EAF955480123062202
:104D200004214C38FEF7E3F9514801230722022100
:104D30004C38FEF7DCF94E480123082202214C389A
:104D4000FEF7D5F94A4801214C38FEF71DF94FF41A
:104D500080300C9001208DF834008DF835004FF430
:104D600060200E9000200F9008208DF840000CA9C4
:104D70004148FEF747F901231A4619463E48FEF717
:104D8000B6F90123022219463B48FEF7B0F9032287
:104D9000012311463848FEF7AAF901230422032112
:104DA0003548FEF7A4F90123052219463248FEF7DB
:104DB0009EF90123062219462F48FEF798F9012390
:104DC000072203212C48FEF792F901230822032130
:104DD0002948FEF78CF901212748FEF7E0F824481E
:104DE00001214C38FEF7C5F821484C38FFF793FEF7
:104DF00001212148FEF7BDF81F48FFF78CFE1F4830
:104E00001F49006808601A4801214C38FEF763F911
:104E100001211948FEF75FF9154801231A460521BB
:104E20004C38FEF717F901231A4604211248FEF701
:104E300011F90F4801214C38FEF7BCF801210E484A
:104E4000FEF7B8F80A484FF4E0414C38FEF7BDF8D9
:104E50004FF4E0410848FEF7B8F8054801214C3806
:104E6000FEF7A6F911B000BD3E0000200800024088
:104E70004C240140CC0300200028014034000020D5
:104E80006C0000202DE9F05FDFF8F490D9F8307065
:104E9000D9F84050D9F83C80D9F83460D9F8384076
:104EA0004FF07E50874201DD074603E035488742D8
:104EB00000DA07463448854201DD054603E0334801
:104EC000854200DA0546DFF8C8B0D84501DDD8468E
:104ED00004E018F1FF4F01D34FF000082D4886423F
:104EE00001DD064603E02C48864200DA06462B48E0
:104EF000DFF8ACA0844201DD044602E0544500DA4C
:104F000054462849384604F0D9FE514604F044FD81
:104F10000146254804F040FDDFF890A0CAF80000E3
:104F20002349284604F0CAFE0146584604F034FDE1
:104F300004F028FEAAF804000121404605F057F9C4
:104F400004F020FECAF808000121304605F04FF9B0
:104F500004F018FECAF810000121204605F047F9B8
:104F600004F010FECAF80C00C9F83070C9F84050BF
:104F7000C9F83C80C9F83460C9F83840BDE8F09FF2
:104F8000F8050020CDCC4C3D0000F041CDCCCC3D0F
:104F90000000C8420000FA430000A04100409C46C7
:104FA00000007A449A994B42603253322800002024
:104FB0005555D53F024AC103116002490860704748
:104FC00068000020640000202749B1F9000012E0C9
:104FD000264A411C32F8111022F81010244A411CB4
:104FE00032F8111022F81010224A411C32F8111028
:104FF00022F81010401C2049B1F90010491E8142CE
:10500000E6DC1D491C4A0988491E09B2118016496F
:10501000B2F90020B1F90010914202D1124A0021E8
:105020001180114A1149B2F9002031F81210134AC7
:105030001268511A114A11600B4A0D49B2F9002049
:1050400031F812100E4A1268511A0D4A1160064AC0
:105050000849B2F9002031F812100A4A1268511AB0
:10506000084A1160704700003C000020EC0300205B
:105070006C040020EC0400203E00002040000020D2
:1050800044000020480000200248B0F80100024916
:10509000088070476C0500207C0000202DE9F0415D
:1050A00000F040FA6948006800286ED0684800683F
:1050B00066490968B0FBF1F201FB1200002864D1D7
:1050C0000024A6E06348005D002874D06148005DBC
:1050D00010280DD2DFE800F09A080D12292E3F4863
:1050E000505A5F67707880925B48006800F002FB5E
:1050F0008CE05A48006800F0FDFA87E058480068E4
:1051000004F07CFD07465748006804F077FD8046B0
:10511000394604F041FC064650480168304604F028
:10512000CDFD054600F0E6FA70E04F48006800F05B
:10513000E1FA6BE04A48006804F060FD0646494821
:10514000006804F05BFD0746314604F025FC054687
:1051500000F0D0FA5AE045490968480804F066FDB5
:10516000054600F0C7FA51E04148006804F05EFDD2
:10517000054600F0BFFA49E03E48B0F9000004F0EF
:105180003DFD054600F0B6FA40E057E03A480068B9
:1051900000F0B0FA3AE03948007804F047FD0546DF
:1051A00000F0A8FA32E03648006804F03FFD0546FA
:1051B00000F0A0FA2AE02AE03248006804F036FD48
:1051C000054600F097FA21E02F48006804F02EFD14
:1051D000054600F08FFA19E029490968294A126842
:1051E0001144294A1268881804F020FD0646274910
:1051F00004F0D2FB054600F07DFA07E02448007871
:1052000004F014FD054600F075FA00BF00E003E06D
:10521000641C102CFFF656AF00BF1E480068401CEF
:105220001C490860084600681B490978884204D177
:1052300000F07AFA00201749086000BF04480068AF
:10524000401C03490860BDE8F08100008000002098
:10525000780000207705002098030020A00300209C
:105260001003002014030020A40300206400002089
:10527000280300203E000020940300205803002053
:105280004000002044000020480000200000404072
:105290001C030020740000208500002070B5934896
:1052A00000780F2873D2DFE800F0080B19F82842C5
:1052B000724EE02E723D7672AC00FFF7E5FE0DE116
:1052C0008B48007838B901208A49087003F040F80B
:1052D000FFF7DAFE01E000F0ADF9FFE08448007866
:1052E000012802DD00F0A6F906E0002082490860EE
:1052F00082490870FFF7C8FEF0E0062003F0B8F816
:10530000FFF7C2FEEAE07A48007818B178480078E2
:10531000012802DD00F08EF903E003F04DFCFFF7F9
:10532000B3FEDBE003F068FCFFF7AEFED6E06F49AA
:10533000D1F8030003F0C2F810B1FFF7A5FE01E0B9
:1053400000F078F9CAE06E494869002104F0E6FBF4
:105350001ED06648D0F803406A49204604F07AFC23
:1053600001D2684C05E06849204604F073FD00D284
:10537000654C66480078012804D003F07DFB0120CD
:105380006249087062480460FFF77EFE02E0A4E014
:1053900000F050F9A2E05549D1F8030004F0F2FB07
:1053A0000446204604F02AFC05464FF07E5104F0E6
:1053B00051FD20D8B4F57A7F01DD4FF47A744FF4B3
:1053C0007A7090FBF4F04C490860642C01DC0120F9
:1053D00002E0322094FBF0F04E49087000204E4964
:1053E00008704E48007848B904204D4908700120E3
:1053F0004A49087002E0012047490870FFF744FE5F
:105400006CE03A49D1F803004FF0834104F022FCEC
:1054100028D23649D1F807004FF0834104F01AFC36
:1054200020D23249D1F8070004F0C8FBC5B22F4999
:10543000D1F8030004F0A6FB39490D540020374988
:105440000870002408E03648005D18B1601C33493C
:10545000087000E002E0641C102CF4DB00BFFFF7D2
:1054600013FE01E000F0E6F838E02148007801285A
:1054700010DC1E49D1F8030004F084FB04461B48ED
:10548000D0F80710204601F0D7FA18B1FFF7FCFD5D
:1054900002E002E000F0CEF820E01449D1F8030069
:1054A00004F070FB20B1012807D0022813D10DE0D1
:1054B00001F0A8FAFFF7E8FD0DE001F0CFFA10B116
:1054C000FFF7E2FD01E000F0B5F804E001F0F2F9C9
:1054D000FFF7DAFD00BF00BF00E000BF00BF0648D5
:1054E000006808B900F0B0F870BD00006C0500203D
:1054F000580300205903002080000020B903002039
:10550000F80500200000C84200401C46BB030020F4
:10551000A8030020850000208400002086000020D1
:105520007705002010B55CE030490978042901DADC
:10553000012100E00021084600F064F804462B48F1
:105540000078062848D2DFE800F00309182134402B
:10555000412C02D101202549087041E0712C08D16D
:105560000020234908702349087002201F49087051
:1055700002E000201D49087032E01F48047000203E
:105580001E49087003201949087029E01C481B496E
:105590000978445419480078401C18490870084696
:1055A000007815490978884202D104200F49087013
:1055B00016E010480078A04203D000200B49087084
:1055C00002E00520094908700AE009480078A04275
:1055D00001D1FFF763FE00BF00200449087000BF3F
:1055E00000BF03F04BFC00289ED110BD8B000020B3
:1055F0008A00002089000020700000207100002037
:105600006C05002070B5044603F014FDC5B254B11A
:10561000064800782844054908700548007809784C
:10562000084403490870284670BD00008900002026
:105630008A0000200248B0F8010002490880704743
:105640006C0500207E00002010B52AE019A003F0B0
:10565000E5FC00201849087018490870032000F084
:1056600033F81748008850B1FA2000F02DF814489C
:10567000008800F04CF800201149088009E0FB2068
:1056800000F022F80F48008800F041F800200D4992
:1056900008800A48007803F041FD0748007803F0CD
:1056A0003DFD074800880028D0D106480088002822
:1056B000CCD110BD4171430088000020870000203C
:1056C0007C0000207E00002010B50446204603F038
:1056D00025FD0648007820440449087004480078F5
:1056E000097808440249087010BD000087000020B6
:1056F0008800002031B56D46002405E015F8010B47
:10570000FFF7E2FF601CC4B2042CF7D338BD31B5FB
:105710006D46002405E015F8010BFFF7D5FF601C6E
:10572000C4B2022CF7D338BD10B51248007803F08C
:10573000F5FC1148007803F0F1FCFFF785FF0F48F6
:10574000007880B90EA003F069FC00200A490870B7
:10575000084908700B480078FFF7B6FF0A48007840
:10576000FFF7B2FF04E00020084908600349087011
:1057700010BD000087000020880000208400002069
:105780004171540085000020860000208000002028
:1057900070B55B48006830B35A48006858490968DA
:1057A000B0FBF1F201FB1200E8B9574803F036FCF8
:1057B000534800684FF47A7191FBF0F4224653A1EC
:1057C0005848FAF785FD574803F028FC54A12846AD
:1057D00000F0C8FD54A003F021FC544803F01EFC67
:1057E000534803F01BFC84E003F024FCC4B251488E
:1057F00001680068401C4F4A10604C4844541046F1
:105800000068202805D110460068401E1146086037
:105810000A244848006800282ED00A2C01D00D2CFC
:105820002AD144480068012823DD43A003F0F6FB99
:10583000424803F0F3FB00203C493E4A126888547A
:10584000084600F09DF805464DB12868FBF74FF972
:105850003649461831462846AA68904702E038A0E3
:1058600003F0DCFB3B48007818B1002031490860A8
:1058700070BD00F0B1FF3BE0032C02D100F0ACFFA3
:1058800036E0082C24D12B48006801281ADD0021BD
:1058900028480068801E254A11542FA003F0BEFB43
:1058A000224803F0BBFB202003F038FC2AA003F0C1
:1058B000B5FB1E4803F0B2FB1E480068801E1D4960
:1058C000086015E01B480068401E1A4908600FE098
:1058D000202C01DB7E2C08DD072003F01FFC15487F
:1058E0000068401E1349086002E0204603F016FCE1
:1058F00000BF03F0C3FA00287FF476AF00BFB7E71C
:10590000D00000208C0300205CA3000854656C6567
:105910006D65747279204020256420487A0D0A0A4A
:1059200000000000B70500200A3E20009705002077
:1059300065A30008CC0000200D0A000069A3000840
:10594000436F6D6D616E64206E6F7420666F756E4F
:1059500064000000B90300200D3E20002DE9F04155
:1059600005460C462F4626463068FBF7C0F88046B1
:10597000316842463868FBF78CF8BDE8F0810000DA
:105980001FB5044600200190029003900194054841
:105990000C2313220449009001A8FBF726F804B059
:1059A00010BD00005D59000878A2000870B50446DB
:1059B0000D460A480078002803DD09A003F02EFBFD
:1059C0000BE00C480078032802D0012000F0E8F832
:1059D00002F0BEFC08A003F021FB70BD58030020BC
:1059E00045534320616C72656164792061726D6515
:1059F000640D0A00BB0300204553432061726D65AE
:105A0000640D0A007CB505460C461B480078012849
:105A100004DD1A48006803F001FB2CE06B4601AA84
:105A200017A12046FAF7AEFE022803D0284600F060
:105A3000E7FE20E0BDF804000A2805DBBDF80400FD
:105A400041F28831884203DD0FA003F0E7FA12E04B
:105A5000BDF80000012804DBBDF80000B0F57A7F36
:105A600003DD13A003F0DAFA05E0BDF80010BDF87D
:105A7000040001F063F87CBD58030020C40000203E
:105A800025687520256875006672657175656E6399
:105A900079206F7574206F662072616E67653A2099
:105AA0003130203D3E20353030300D0A00000000FE
:105AB0006475726174696F6E206F7574206F6620F3
:105AC00072616E67653A2031203D3E2031303030C2
:105AD0000D0A000070B504460D46094800780128FB
